:020000040800F2
:100000000020002075040008C9040008C904000885
:1000100000000000000000000000000000000000E0
:10002000000000000000000000000000C9040008FB
:100030000000000000000000C90400089102000850
:10004000C9040008C9040008C9040008C90400085C
:10005000C9040008C9040008C9040008C90400084C
:10006000C9040008C9040008C9040008C90400083C
:10007000C9040008C9040008C9040008C90400082C
:10008000C9040008C904000800000000C9040008F1
:10009000C9040008C9040008C9040008C90400080C
:1000A000C9040008C9040008C9040008C9040008FC
:1000B000C904000800000000C90400080000000096
:0400C0005FF808F1EC
:1000C400002934D00123002210B488422CD3012407
:1000D4002407A14204D2814202D209011B01F8E79C
:1000E400E400A14204D2814202D249005B00F8E755
:1000F400884201D3401A1A434C08A04202D3001B81
:100104005C0822438C08A04202D3001B9C082243B3
:10011400CC08A04202D3001BDC082243002803D0F1
:100124001B0901D00909E3E7101C10BC7047002823
:1001340001D00020C04307B4024802A14018029035
:1001440003BDC046190000000029F0D003B5FFF735
:10015400B9FF0EBC4243891A1847C0467047C046CF
:10016400B0B582B000AF021C3960FB1D1A70FB1DD4
:100174001B787F2B32D93049FB1D1B781A1C0F23A7
:100184001340083B98082C4AFB1D1B781C1C0F23AA
:100194002340083B9B0806339B00D3185B68FA1D79
:1001A4001278141C03222240D200FF24251C9540FF
:1001B4002A1CD2431A403B689C01FF231C40FB1DB0
:1001C4001B781D1C03232B40DB00251C9D402B1C8E
:1001D4001A43831D9B00CB185A6029E0174BFA1D64
:1001E400127852B292081549F81D007840B280087E
:1001F400C03080004158F81D0078041C03202040C2
:10020400C000FF24251C8540281CC04308403968D1
:100214008C01FF210C40F91D09780D1C0321294094
:10022400C900251C8D40291C0143C0329200D150C5
:10023400BD4602B0B0BDC04600ED00E000E100E004
:1002440080B582B000AF78607A680E4B9A4201D9CB
:10025400012312E00C4B7A681202120A013A5A6026
:1002640001235B42181C0321FFF77AFF064B00228F
:100274009A60054B07221A600023181CBD4602B081
:1002840080BDC046FFFFFF0010E000E080B500AF76
:100294000B4B1B881A1C013399B2094B1980642A31
:1002A4000CD1074B00221A80064B064A928A92B25E
:1002B400802149004A4092B29A82C046BD4680BD20
:1002C400040000200008004880B500AF0A4B0A4A29
:1002D4005269802109030A435A61084B8022520261
:1002E4001A60074B1B68181C6421FFF7E9FE031C06
:1002F400181CFFF7A5FFFEE70010024000080048A5
:100304000000002080B500AF1B4B1B4A126801217E
:100314000A431A60184B184A5168184A0A405A602E
:10032400154B154A1168164A0A401A60124B124AB4
:100334001168144A0A401A600F4B0F4A5168124A56
:100344000A405A600C4B0C4AD26A0F218A43DA6283
:10035400094B094A116B0D4A0A401A63064B064AB7
:10036400526B01218A435A63034B00229A6000F0C6
:100374000FF8BD4680BDC046001002400CB8FFF81F
:10038400FFFFF6FEFFFFFBFFFFFFC0FFACFEFFFF1A
:1003940080B582B000AF00237B6000233B60314B0B
:1003A400304A1268802149020A431A602D4B1A68A8
:1003B40080239B0213403B607B6801337B603B6876
:1003C400002B04D17A68A023DB009A42EED1254B9E
:1003D4001A6880239B02134002D001233B6001E092
:1003E40000233B603B68012B38D11F4B11221A605C
:1003F4001C4B1C4A52685A601A4B1A4A52685A607B
:10040400184B184A5168194A0A405A60154B154A44
:100414005268882149030A435A60124B114A1268F0
:10042400802149040A431A60C0460E4B1A6880238F
:100434009B041340F9D00B4B0A4A526803218A43A8
:100444005A60084B074A526802210A435A60C04660
:10045400044B5A680C231340082BF9D1BD4602B053
:1004640080BDC0460010024000200240FFFFC0FFD4
:100474000E488546002103E00D4B5B584350043180
:100484000C480D4B42189A42F6D30C4A02E0002362
:10049400136004320A4B9A42F9D3FFF733FF00F09A
:1004A40013F8FFF711FFFEE7FEE70000002000202D
:1004B400740500080000002004000020040000204F
:1004C40008000020FEE70000F8B51F4F1F4C381B42
:1004D400871018D001227B1E151C02CC01261D405A
:1004E4008847B7420FD0002D04D040CCB047022635
:1004F400B74208D0251C01CD80470236636898476F
:100504002C1DB742F6D100F027F8114F114C3A1BBD
:10051400971018D00126791E351C01CC01260D40F8
:100524008047B7420FD0002D04D008CC022698474C
:10053400B74208D0251C04CD90470236616888472D
:100544002C1DB742F6D1F8BD0000000000000000E9
:100554000000000000000000F8B5C046F8BC08BC6C
:100564009E467047F8B5C046F8BC08BC9E46704726
:04057400006CDC0239
:040000050800047576
:00000001FF
