:020000040800F2
:100000000004002021020008310400080104000857
:1000100001040008010400080104000801040008AC
:10002000010400080104000801040008010400089C
:10003000010400080104000801040008A1040008EC
:10004000010400080104000801040008010400087C
:10005000010400080104000801040008010400086C
:10006000010400080104000801040008010400085C
:10007000010400080104000801040008010400084C
:10008000010400080104000801040008010400083C
:10009000010400080104000801040008010400082C
:1000A000010400080104000801040008015D0008C3
:1000B000010400080104000801040008010400080C
:1000C00070B582B005F014FC00F05AFA194E002108
:1000D000301C05F085FC90208021C005890082221B
:1000E00005F09EFD80239022D005D90000248222B5
:1000F000982505F095FD6900009440220E4B0F48AD
:1001000000F066FC982100940D48490040220D4BF8
:1001100000F05EFC9020C505012403E0FA2358009E
:1001200000F096FC2A691442F8D0301C01F0C0FFA0
:10013000F4E7C04620110020C15E0008A011002095
:10014000D0120020915E0008C046C046C046C0469E
:10015000002934D00123002210B488422CD301247A
:100160002407A14204D2814202D209011B01F8E70F
:10017000E400A14204D2814202D249005B00F8E7C8
:10018000884201D3401A1A434C08A04202D3001BF4
:100190005C0822438C08A04202D3001B9C08224327
:1001A000CC08A04202D3001BDC082243002803D065
:1001B0001B0901D00909E3E7101C10BC7047002897
:1001C00001D00020C04307B4024802A140180290A9
:1001D00003BDC0461D0000000029F0D003B5FFF7A5
:1001E000B9FF0EBC4243891A1847C0460000000000
:1001F0007047C04600000000000000000000000042
:100200007047C046C046C046C046C046C046C0460D
:10021000FEE7C046C046C046C046C046C046C046CF
:1002200072B6664C261C84F30988022383F3148873
:10023000BFF36F8F624A6348824218D2C51C131DF8
:10024000E91A8808013085005F49A818043D6D0748
:10025000ED0F116083420AD0002D02D002C3834209
:1002600005D01A1C02C25960131D8342F9D1574AA6
:10027000A24218D2F41C131DE11A88080130840030
:100280005149A018043C6407E40F116083420AD06E
:10029000002C02D002C3834205D01A1C02C259604E
:1002A000131D8342F9D105F0E3FD4949494B9942B9
:1002B0001ED2DD1C0B1DE81A84080134A20055185B
:1002C000043A5007444AC00F10CA0C60AB420FD02A
:1002D000002803D002CA02C3AB4209D0101C10C8C8
:1002E000191C526810C15A600B1D021DAB42F5D19A
:1002F0003A4A3B4B9A4218D2DC1C131DE01A810883
:1003000001318C00A018043C00216407E40F116047
:1003100083420AD0002C02D002C3834205D01A1CAB
:1003200002C25960131D8342F9D1FFF769FF2D4BBB
:100330002D498B421CD203311E1D8F1B0120BD088D
:10034000041C6F1C2C401A6801259047BD420FD039
:10035000002C04D008CE02259847BD4208D0341C9A
:1003600002CC884702357668B047261DBD42F6D1DB
:10037000FFF7A6FE1D481E4A90421CD20332061DFE
:10038000941B0123A5081C1C6F1C2C40016801252F
:100390008847BD420FD0002C04D001CE02258047F3
:1003A000BD4208D0341C04CC904702357668B04773
:1003B000261DBD42F6D1FFF72BFFC04600080020E6
:1003C0000000002000040020555555550004002071
:1003D00000080020B8080020386C0008B808002089
:1003E00000140020C0000008C0000008C000000881
:1003F000C0000008C046C046C046C046C046C04611
:10040000FEE7C046C046C046C046C046C046C046DD
:1004100000F086FA8022024B10065860FEE7C046C4
:1004200000ED00E0C046C046C046C046C046C046DB
:10043000EFF30983203383F3098862B67047C0461F
:100440000F3017D072B6EFF30983203B83F309888E
:1004500080225004D8610D488169CA7F002A0AD1E0
:1004600000688968806888425241D2B2002A0AD165
:10047000074A9A61704700688968826891428041A2
:100480004242002AF4D003499961F3E7D0090020E1
:100490001404000811040008C046C046C046C04607
:1004A00010B5744672B600F0ABF862B6201CFFF7C8
:1004B000C7FF10BDC046C046C046C046C046C04685
:1004C000F0B544464D4656465F46F0B46B46CB60A9
:1004D000C3689D46F0BCA046A946B246BB46F0BDE7
:1004E00062B6281CA04700F0FBFA7047C046C04621
:1004F000820870B50C4BC032032492000440D558DA
:10050000E400FF26A640A140B5430D43D550420963
:100510001F21161C603608400124B500844092005B
:10052000EC50D45070BDC04600E100E0C046C0466B
:10053000820830B5064B0325063292002840D45875
:10054000C000FF258540AC4381400C43D45030BDF2
:1005500000ED00E0C046C046C046C046C046C046AA
:10056000024B034A98698261FEE7C046D009002029
:10057000005F0008C046C046C046C046C046C046F0
:1005800000B5154A154B83B0DA600A200021FFF749
:10059000CFFF0B208021FFF7CBFF00F0F1F800F038
:1005A0005FF801F055FA01F093FA40210C4800F091
:1005B000C7F90C4901228861027762B60A4B886943
:1005C0000021836101220091084BC021084800F0FE
:1005D000FFF903B000BDC0460000FA0500ED00E0E1
:1005E000B8080020D0090020105F0008610500084D
:1005F00000090020C046C046C046C046C046C046AE
:1006000038B5124B9869C27F002A01D0013AC277EF
:10061000016A0F4C01310162E56823680135E5602C
:10062000A34212D098680138986000280DD10025A7
:100630001A68D9685460DD60226062B6186988471C
:1006400072B6236898680028F2D038BDD00900201F
:10065000C0090020C046C046C046C046C046C0468D
:10066000044B0122504200215B601B609860D960FE
:100670007047C046C0090020C046C046C046C046BC
:1006800010B50C4C03612368C2609A68914204D98A
:100690001B68891A9A688A42FAD35A6803604260D2
:1006A000106058608160A34202D09868411A996036
:1006B00010BDC046C0090020C046C046C046C04666
:1006C0000368074A10B5934203D0996884680A19F1
:1006D0009A60416800240B600368C460596010BDD3
:1006E000C0090020C046C046C046C046C046C046FD
:1006F000074A031CD268814206D900209A4202D3DD
:100700008A4280414042704701209A42FBD2F7E77B
:10071000C0090020C046C046C046C046C046C046CC
:1007200072B6037F032B19D015D9052B1AD00D2BC8
:1007300018D001230022594202770D4B8268416292
:100740001B6899689142FBD25A680360426010604E
:10075000586062B67047002BFBD0EAE7416A8A68AE
:1007600001328A6043680168196002685360E0E7FB
:10077000D0090020C046C046C046C046C046C0465C
:10078000034B00225B601B609A605B611B617047DA
:10079000D0090020C046C046C046C046C046C0463C
:1007A000002303778268054B1B6899689142FBD24E
:1007B0005A6803604260106058607047D00900209A
:1007C00008B5074B1422996908771868CA77026838
:1007D00053601A60986101230377FFF771FE08BD2B
:1007E000D0090020C046C046C046C046C046C046EC
:1007F00030B5051C87B04B1C12D00B4C01A8A36967
:100800000A4AFFF73DFF281CFFF7DAFF049B002B85
:1008100002D001A8FFF754FFA069406A07B030BDBD
:10082000FFF7CEFF004CF7E7D009002021070008B2
:1008300038B5124D4162A96984688A6800239442E0
:100840000BD80377291C09688B689C42FBD94C683C
:10085000016044602060486038BD0B772B1C1B682A
:100860009C68A242FBD95A680B604A6011605960CB
:10087000A86101250577FFF723FEEDE7D0090020E9
:100880000E4B10B5186899690268012453601A600C
:100890009861002214230477CB770A77031C8A68B7
:1008A00000E01B689C689442FBD25A680B604A6067
:1008B00011605960FFF704FE10BDC046D00900204A
:1008C0000D4B10B5186899690268012453601A60CD
:1008D0009861002304778A680B77031C00E01B688B
:1008E0009C689442FBD85A680B604A60116059605A
:1008F000FFF7E6FD10BDC046D0090020C046C04647
:1009000008B5054B1A68986991688368994201D9BE
:10091000FFF7D6FF08BDC046D0090020C046C0463C
:1009200008B5054B9869C17F002902D0FFF7C8FFC1
:1009300008BDFFF7A5FFFBE7D0090020C046C04671
:10094000022303770023816043770164C3638363D9
:10095000036201218361084B14228177011CC27755
:1009600028315A698162043103614261016358612F
:10097000C16210617047C046D0090020C046C04621
:1009800024394118C1600B61009B4B610E4B0B6217
:1009900000238260022143770264C363836303629E
:1009A00001228361094B017782771421021CC177F0
:1009B00028325969826204320361416102635861DD
:1009C000C26208617047C046E1040008D0090020F7
:1009D00010B582B072B6049C0094FFF7D1FF0021DD
:1009E000041CFFF725FF62B6201C02B010BDC046F4
:1009F00010B572B6074B9A69146C91688C4201D09D
:100A0000814200D290601064FFF77AFF62B6201C2A
:100A100010BDC046D0090020C046C046C046C046F2
:100A200010B5041C72B60021FFF702FF62B6201C4D
:100A300010BDC046C046C046C046C046C046C046BF
:100A400072B6427F04231343437762B67047C046B1
:100A500008B5011C72B60620FFF7CAFE62B608BDD3
:100A600008B572B6044BD968411A02D00620FFF7C8
:100A7000BFFE62B608BDC046C0090020C046C046E1
:100A800008B572B6054B1A689869916883689942EF
:100A900001D3FFF7F5FE62B608BDC046D0090020BD
:100AA00038B50D4B9C696062251CA06A2835A842A8
:100AB00006D00168A162FFF773FEA06AA842F8D1D0
:100AC000607F820704D1636922691A6124696361C6
:100AD0000E20FFF775FE38BDD0090020C046C04685
:100AE00008B572B6FFF7DCFF08BDC046C046C04679
:100AF00038B5041C72B6037F0E2B07D00748A26AD4
:100B0000816907200A60A162FFF75AFE656A62B632
:100B1000201C00F00DF8281C38BDC046D00900206C
:100B200072B6837F0133837762B67047C046C04692
:100B300008B5011C72B6837F013BD8B2887762B6D4
:100B4000002802D10A7F0E2A00D008BD4B7F032067
:100B50000340012B0AD0022BF7D14B690A691A61B5
:100B600008694361486C01F0BBF8EEE74B690A691C
:100B70001A6108694361081C01F00AF8E5E7C046FC
:100B800070B582B00C1C161C1D1C00F0C1FF0028A3
:100B900012D072B6069B211C0093321C2B1CFFF74F
:100BA000EFFE041C012060770021201CFFF740FEAF
:100BB00062B6201C02B070BD0024FAE7C046C046F1
:100BC000F0B583B0051C0E1C141C1F1C01F078F836
:100BD000002811D072B6321C6968231C0097FFF7F9
:100BE000CFFE0223437745640021061CFFF720FE59
:100BF00062B6301C03B0F0BD0026FAE7C046C0461E
:100C000072B6034B1869817F0131817762B67047F4
:100C1000D0090020C046C046C046C046C046C046B7
:100C200010B572B6064B04699C4207D0A17F013112
:100C3000A17762B6FFF77CFF201C10BD0024F8E707
:100C4000D0090020C046C046C046C046C046C04687
:100C50004060006081607047C046C046C046C046E4
:100C6000F8B58568041C01358160002D2BDC4068D7
:100C7000012341682F1C61600C601F40FFF790FD4D
:100C80000226764201354662012D1CD0002F09D084
:100C900060680135426862601460FFF781FD46625A
:100CA000012D10D060680235436863601C60FFF757
:100CB00077FD46626068476867603C60FFF770FDDB
:100CC0004662012DEED1F8BDC046C046C046C046C2
:100CD00008B572B6FFF7C4FFFFF712FE62B608BD93
:100CE000826810B5013A031C82600020002A00DBF4
:100CF00010BD074CA06943625968036041605860A9
:100D000008600320FFF75CFDA369586AF0E7C0465E
:100D1000D0090020C046C046C046C046C046C046B6
:100D200008B572B6FFF7DCFF62B608BDC046C04624
:100D300010B58468031C621E82600020002A00DB5C
:100D400010BD00290BD008488469032063625A68EB
:100D5000236062605C601460FFF74AFDF0E70121E8
:100D60009C604842ECE7C046D0090020C046C0461F
:100D700008B572B6FFF7DCFF62B608BDC046C046D4
:100D800008B572B6836801338360002B01DD62B65B
:100D900008BD0268116801604860101C0021FFF75F
:100DA00047FDF4E7C046C046C046C046C046C04600
:100DB00008B5836801338360002B00DD08BD01683E
:100DC0000A680260506000204862081CFFF7E8FCD7
:100DD000F4E7C046C046C046C046C046C046C0460E
:100DE000F8B5041C0D1E2BDD806801224B1E171C5C
:100DF000013000261F40A06000282ADD013D002DA3
:100E00001ED0002F07D0A3680133A360002B0DDD97
:100E1000013D002D14D0A7680137A760002F10DD19
:100E2000A068013D0130A0600028F1DC2068013D90
:100E3000026822605460FFF7B3FC4662002DEAD1DD
:100E4000F8BD2068016821604C60FFF7A9FC46628C
:100E5000E6E72068016821604C60FFF7A1FC46626C
:100E6000CCE7C046C046C046C046C046C046C046A5
:100E700038B50C1C72B6836801338360002B16DD15
:100E8000A0680138A060002804DBFFF739FD0020CE
:100E900062B638BD0B4B62689D6903202C606A60A6
:100EA000656015606C62FFF78BFC686AF0E70268AA
:100EB0000025116801604860101CFFF771FC456255
:100EC000DEE7C046D0090020C046C046C046C04646
:100ED00000234060006083607047C046C046C04643
:100EE0002F4B70B59C698368051C002B51D0A168FD
:100EF0009A68914207D91E7F9960042E31D0052E41
:100F00001CD0002E11D02E1C3668B54203D0B36819
:100F1000A2689342F8D27168266061600C607460C8
:100F200065620420FFF74CFC70BD5A6819681160B7
:100F300018684260181CFFF733FCE4E75E681A6823
:100F4000326018684660586A021C1268904202D0EB
:100F500096688E42F9D251681A6059600B605360EE
:100F6000D1E75A68186810601E68586A7260021CDF
:100F70001268904212D096688E42F9D251681A6077
:100F800059600B6053608368A16898688842B2D347
:100F9000B9E78460E06BE860E563C5E7021CEDE754
:100FA000D0090020C046C046C046C046C046C04624
:100FB00008B572B6FFF794FF62B608BDC046C046DA
:100FC000031C72B699680020002901D062B67047F0
:100FD000034A9069C16B9860D960C3630120F5E74B
:100FE000D0090020C046C046C046C046C046C046E4
:100FF00038B5134B9D6972B6EC6BE3682068EB6300
:10100000A0421AD0296C002B09D01A689A4203D04A
:101010009268914200D2111CDB68002BF5D1A960C7
:10102000C26B0568002125606C60A060E260C4634B
:10103000FFF7FEFB62B6201C38BD0020A060F9E778
:10104000D0090020C046C046C046C046C046C04683
:1010500038B5124B9D69EC6BE3682068EB63A042E6
:1010600018D0296C002B09D01A689A4203D09268D4
:10107000914200D2111CDB68002BF5D1A960C26B34
:10108000056825606C60A060E260C463FFF788FBC0
:10109000201C38BD0020A060FAE7C046D00900201F
:1010A00038B5114B9C6972B6E36B002B1AD0002542
:1010B0000BE00168C26B19604B609860DA60C36333
:1010C000FFF76EFBE36B002B08D0DA681868E26369
:1010D0009842EED19D60E36B002BF6D1206CA060AE
:1010E000FFF70EFC62B638BDD0090020C046C046EE
:1010F000406000607047C046C046C046C046C0461B
:1011000008B572B60368834206D01A6800210260EF
:101110005060181CFFF78CFB62B608BDC046C04685
:1011200008B50368834207D01A6802605060181C33
:10113000FFF736FB0021416208BDC046C046C046ED
:1011400038B5041C0068A0420AD002256D4203682D
:1011500023605C60FFF724FB45622068A042F6D163
:1011600038BDC046C046C046C046C046C046C04660
:1011700008B572B6FFF7E4FFFFF7C2FB62B608BD21
:10118000104B70B5051C9C69FFF762FF6562061C79
:101190002A1C2B1C03E09868A168884210D31B68A6
:1011A0009D42F8D15568226065602C60546005202E
:1011B000FFF706FB646A301CFFF792FE201C70BD2F
:1011C0001A1CEFE7D0090020C046C046C046C04602
:1011D00008B572B6FFF7D4FF62B608BDC046C04678
:1011E00070B5041C0D1CFFF733FF0E4B061C9A69EB
:1011F000231C54621B689C4203D09968906881420A
:10120000F8D25C6813605460291C5A602260052083
:10121000FFF7EEFA051C681C02D0301CFFF760FED9
:10122000281C70BDD0090020C046C046C046C0463C
:1012300008B572B6FFF7D4FF62B608BDC046C04617
:1012400072B603680B600160034883698A600022FC
:101250004B60CA6062B67047D0090020C046C046E5
:1012600072B6021C00E01A1C1368834203D0994234
:10127000F9D10968116062B67047C046C046C046E1
:1012800072B6044B9A69936B191C8143916362B6E1
:1012900018407047D0090020C046C046C046C0462E
:1012A00072B6034B99698A6B1043886362B67047C4
:1012B000D0090020C046C046C046C046C046C04611
:1012C00008B5836B027F19438163082A0BD0092A72
:1012D00000D008BD436A19408B42FAD1FFF760FA8B
:1012E00000214162F5E7426A0A42F2D0FFF758FA5C
:1012F00000214162EDE7C046C046C046C046C04638
:1013000008B572B6FFF7DCFFFFF7FAFA62B608BD60
:1013100070B50468051C0E1CA04209D0E368606823
:101320003343E360A168FFF7CBFF2468A542F5D102
:1013300070BDC046C046C046C046C046C046C04656
:1013400008B572B6FFF7E4FFFFF7DAFA62B608BD38
:10135000F8B50D1C061C00240127002904D10FE05C
:1013600001340436002D0BD03B1CA3401D42F7D0A6
:10137000201C31689D43013488470436002DF3D189
:10138000F8BDC046C046C046C046C046C046C0467E
:1013900038B50A4B051C9C6972B6A26B111C014042
:1013A00006D160620820FFF70BFAA26B111C2940DE
:1013B000484208408243A26362B638BDD00900208B
:1013C00038B5094B051C9C6972B6A26B101C2840ED
:1013D00006D108206562FFF7F3F9A26B101C2840C4
:1013E0008243A26362B638BDD0090020C046C04621
:1013F00038B5094B041C9D6972B6A86B021C2240CB
:10140000A24204D009206C62FFF7DAF9A86BA0436E
:10141000A86362B6201C38BDD0090020C046C04673
:101420000D4B70B5061C9D6972B6A86B041C344048
:101430000DD1002902D162B6201C70BD6E62082059
:10144000FFF7D6F90028F6DBA86B041C3440624293
:101450001440A043A863EEE7D0090020C046C04670
:101460000C4B70B5061C9D6972B6A86B041C344009
:101470000DD1002902D162B6201C70BD6E62082019
:10148000FFF7B6F90028F6DBA86B041C3440A04334
:10149000A863F0E7D0090020C046C046C046C04659
:1014A00038B50D4B041C9D6972B6A86B021C224016
:1014B000A2420BD0002902D162B6002409E06C627E
:1014C0000920FFF795F90028F6DBA86BA043A86375
:1014D00062B6201C38BDC046D0090020C046C046B8
:1014E0000C4B10B59C6972B66163011C2C316162B2
:1014F000026B2160626004631460037F0C2B05D0D3
:101500000A20FFF75DF9606A62B610BDFFF748F97F
:10151000F6E7C046D0090020C046C046C046C046D7
:1015200010B572B60A4CA3691A1CD86A2C329042C4
:1015300006D001680B24D9624A60047762B610BDF8
:101540000C20FFF73DF9A3691A1CD86A2C32F0E78A
:10155000D0090020C046C046C046C046C046C0466E
:1015600008B572B6FFF764F962B608BDC046C0465A
:1015700010B5041CE160A16021600B1C91005B1898
:101580004360111C1C30FFF763FB201C103000214E
:10159000FFF75EFB10BDC046C046C046C046C04611
:1015A00010B5041C72B601686368C1605A1A816084
:1015B00091101C30FFF754FB201C10300021FFF766
:1015C0004FFBFFF79DF962B610BDC046C046C0464E
:1015D00070B5041C0E1C1C30111CFFF7A9FB051E66
:1015E0000BD1A368626840C3A360934207D2201C5A
:1015F0001030FFF7DDFBFFF783F9281C70BD206872
:10160000A060F4E7C046C046C046C046C046C046DB
:1016100008B572B6FFF7DCFF62B608BDC046C0462B
:1016200008B5436A002B0FDD013B436283684268C3
:1016300002C38360934204D21030FFF7B9FB00204D
:1016400008BD01688160F7E701204042F8E7C04625
:1016500070B5041C0E1C1C30111CFFF769FB051E25
:101660000CD1E3682268043BE360934208D3201C5A
:101670001E601030FFF79CFBFFF742F9281C70BD7D
:101680006368043BE360F2E7C046C046C046C0461C
:1016900008B572B6FFF7DCFF62B608BDC046C046AB
:1016A00008B5436A002B11DD013B4362C368026841
:1016B000043BC360934205D310301960FFF778FBF9
:1016C000002008BD4368043BC360F5E701204042A9
:1016D000F7E7C046C046C046C046C046C046C04602
:1016E00070B5041C0E1C1030111CFFF721FB051EE9
:1016F0000CD1E368606804CB3260E360834207D2B8
:10170000201C1C30FFF754FBFFF7FAF8281C70BDB3
:101710002168E160F4E7C046C046C046C046C04606
:1017200008B572B6FFF7DCFF62B608BDC046C0461A
:1017300008B58369002B10DD013B8361C36804CBCE
:101740000A604168C3608B4204D21C30FFF730FB53
:10175000002008BD0368C360F7E701204042F8E7B6
:1017600008B500290BD0074B9B6958624268186086
:101770005A60436013600D20FFF73AF808BD01205E
:101780004042FBE7D0090020C046C046C046C046E4
:1017900010B5C361029B002441618161C160891859
:1017A0004060006084600161036210BDC046C046B5
:1017B00038B5C368041C436183610020A0602068C1
:1017C000A0420AD002256D42016821604C60FEF7FC
:1017D000E7FF45622068A042F6D138BDC046C0464A
:1017E00008B58269436993421CD0826801328260E5
:1017F00019700169013343618B420CD20168814247
:101800000ED00A6802605060081CFEF7C9FF002372
:101810004362002008BDC368016843618142F0D182
:101820000020F7E78268002AE0D004204042F1E778
:1018300038B5041C0D1C72B6C369002B00D0984744
:10184000A068002807D1201C291CFFF789FF002869
:10185000F6DA62B638BDA1690138A060226908785D
:101860000131A1619142F4D3E568A561F1E7C04679
:10187000F0B557468A46C1694E464546E0B4041C59
:1018800091461E1C884672B600274246002A01D0A7
:10189000201CC047A568002D0CD1201C311CFFF76F
:1018A0005FFF0028F6D062B6381C1CBC90469946F3
:1018B000A246F0BDA369013DA56018785146C85500
:1018C00022690133A361934205D262B60137B9455B
:1018D000EAD072B6D9E7E568A561F6E7C046C0462A
:1018E000C361009B41618161C160891840600060F3
:1018F0008260016103627047C046C046C046C04670
:1019000038B50269C368041C43618361D01AA060C2
:101910002068A0420AD002256D42016821604C6017
:10192000FEF73EFF45622068A042F6D138BDC046B2
:1019300070B5041C0E1C151C72B6A368002B07D1D1
:10194000201C291CFFF70CFF0028F6DA62B670BDD8
:101950006069013BA36006702269013060619042BA
:1019600001D3E1686161E569002D01D0201CA84721
:1019700062B60020EBE7C046C046C046C046C0463F
:101980008369426910B59A4218D08168013181603B
:1019900002691C780133836193420CD20168814251
:1019A00007D00A6802605060081CFEF7F9FE0023A9
:1019B0004362201C10BDC3688361EFE78168002982
:1019C000E4D003204042F5E7C046C046C046C046CA
:1019D000F0B557469A46C3694E464546E0B4041CE6
:1019E0000F1C161C994672B600208046A568002D73
:1019F0001BD0013DA56062693978013711702369F8
:101A0000013262619A4201D3E06860614D46002D67
:101A100001D0201CC84762B60122013E9044002E2E
:101A20000AD072B6A568002DE3D1201C5146FFF7FD
:101A300097FE0028DAD062B640461CBC9046994614
:101A4000A246F0BDC046C046C046C046C046C046DD
:101A5000054906480723073199439843044A054B33
:101A6000116018607047C04600140020002000205C
:101A7000F0090020EC090020C046C046C046C04620
:101A800072B60723C21D9A430649074B09681868B6
:101A9000091A8A4203D882181A6062B67047002079
:101AA000FBE7C046EC090020F0090020C046C04614
:101AB000024B034918680A68801A7047EC09002035
:101AC000F0090020C046C046C046C046C046C046D9
:101AD00008B50548054B002103608160C1601030E6
:101AE000FFF7F6F908BDC046F8090020811A000882
:101AF00008B5083A002303608160C3600B604A6048
:101B00001030FFF7E5F908BDC046C046C046C046E4
:101B1000F8B5071E33D0381CCE1D07233D1C1030EE
:101B20009E430835FFF744FA00E0251C2C68002C82
:101B300017D060688642F8D8321C083282420DD82D
:101B40002368811BA2180839136051602A606660FF
:101B50002760FFF74DFA201C0830F8BD26682E607C
:101B6000F6E7FFF745FA396800290AD0301C08303B
:101B70008847002805D0076046600830EDE7024F2F
:101B8000C9E70020E9E7C046F8090020C046C04682
:101B900038B5041C083C2068051C08351030FFF7D8
:101BA00007FA2B1C1A68AB4201D0A34203D2002AC9
:101BB00003D0944201D3131CF4E761682260081C2F
:101BC0001C60083022682518954208D05A68101CFD
:101BD000083019188C420ED0FFF70AFA38BD686831
:101BE0002D680918083161605A682560101C08309A
:101BF00019188C42F0D165682468521908325A606D
:101C00001C60E9E7C046C046C046C046C046C04664
:101C100038B5041C0D1C002815D0201C1030FFF70F
:101C2000C7F9A36800220024002B05D059681B685F
:101C300052180134002BF9D1002D00D02A60FFF793
:101C4000D7F9201C38BD014CE7E7C046F809002051
:101C500000230360416082607047C046C046C046B2
:101C600030B5002A28D0531E01241C4072B60568E6
:101C70000D60016062B645684919002B1CD0002C2C
:101C800009D072B603680B60016062B64468931EA7
:101C90000919002B10D072B602680A60016062B6A2
:101CA00045684C1972B601682160046062B64268EA
:101CB000023BA118002BEED130BDC046C046C04645
:101CC00008B5031C72B60068002803D001681960CB
:101CD00062B608BD9A68002AFAD058689047F7E7BC
:101CE00072B603680B60016062B67047C046C046BA
:101CF000014B01221A7070470D100020C046C046EB
:101D000038B50B4D4C2428682D210368023C9A6895
:101D10009047286801688B682D219847002CF2D1E4
:101D200028680449046802222568A84738BDC046CF
:101D300040100020505F0008C046C046C046C04664
:101D4000F0B5474680B4041C84B000283BD06F46F1
:101D50006D46201C0A21FEF73FFA0E1C3036F6B203
:101D60002E70201C0A21FEF7F3F90135041EF0D174
:101D7000BD4224D9012358426844AC1E154F804609
:101D8000E30715D4386801688A68311C90473868C1
:101D90002678EC1E0568311CAB68984744450ED088
:101DA000386821780268661E9568A8473678023C34
:101DB0003868311C0568AB6898474445F0D104B0D9
:101DC00004BC9046F0BD034F386801688C68302130
:101DD000A047F4E740100020C046C046C046C046B9
:101DE00038B50178041C002908D0054D2868013455
:101DF00003689A68904721780029F7D138BDC0461A
:101E000040100020C046C046C046C046C046C0463E
:101E100038B50178041C094D002907D02868013421
:101E200003689A68904721780029F7D12868022230
:101E300001680C680249A04738BDC0464010002028
:101E4000505F0008C046C046C046C046C046C046B7
:101E500072B6034A136818700133136062B6704794
:101E600010100020C046C046C046C046C046C0460E
:101E70000022002907D1054A0549012313700B7080
:101E8000044B01221860101C7047C0460C10002043
:101E90001410002008100020C046C046C046C046AE
:101EA000F0B51F4A474680B4804617681D489446DF
:101EB0003C1A031CE40714D5B84214D20E780578F6
:101EC000431C0131B5420CD016E01C780A785E1C28
:101ED0004D1C944210D15C784A78731C691C944262
:101EE0000AD1BB42F1D3097800290FD162461060B4
:101EF000002004BC9046F0BD0B480C4F0C4E012155
:101F000045460170397035600120F2E70648074FF9
:101F1000074D0123444603703B702C600120E8E725
:101F20001010002044100020141000200C1000207D
:101F300008100020C046C046C046C046C046C04645
:101F400010B5041C081C111CFEF7D2FB021C00205B
:101F5000002A07D104480549054A012303700B7084
:101F60001460012010BDC0460C1000201410002089
:101F700008100020C046C046C046C046C046C04605
:101F800010B50D4C2068002801D0FEF759FD60689F
:101F9000002801D0FEF754FDA068002801D0FEF70C
:101FA0004FFDE068002801D0FEF74AFD20690028B7
:101FB00001D0FEF745FD10BD2C100020C046C046E4
:101FC00010B5124C2068002803D0FEF791FD0023C5
:101FD00023606068002803D0FEF78AFD002060605F
:101FE000A068002803D0FEF783FD0021A160E0680F
:101FF000002803D0FEF77CFD0022E2602069002863
:1020000003D0FEF775FD0023236110BD2C100020C6
:10201000FA21890048430B4B70B501389D69FEF7E2
:1020200097F82C6A661C30182A6A844202D29442BD
:1020300002D970BD9442F7D982429B415E42002E84
:10204000F2D1F6E7D0090020C046C046C046C046DF
:1020500008B50120FEF7FCFC014BD86808BDC0465E
:10206000C0090020C046C046C046C046C046C04663
:1020700008B5094B00221A7072B6FA21890048434C
:102080000138FEF765F8054A411C00230448FEF7B5
:10209000F7FA62B608BDC0460D100020F11C00081A
:1020A00018100020C046C046C046C046C046C046C4
:1020B000F0B54D4644465F465646F0B4A44C83B056
:1020C0002060A448FFF7A4FEA348FFF7A1FEA348A1
:1020D000FFF79EFEA24D2A212068013503689A6809
:1020E0009047681E01780029F6D19E48FFF790FEC0
:1020F0009D4E2A21206801360768BD68A847711ED9
:1021000009780029F6D19948FFF782FE984E2A21D6
:102110002068013603689A689047701E017800298C
:10212000F6D19448FFF774FE934F2A2120680137B7
:102130000568AE68B047791E09780029F6D18F4846
:10214000FFF766FE8E4F2A212068013703689A68E0
:102150009047781E01780029F6D18A48FFF758FE8B
:10216000894D2A21206801350668B768B847691E7D
:1021700009780029F6D18548FFF74AFE844D2A21C7
:102180002068013503689A689047681E0178002925
:10219000F6D18048FFF73CFE2A277F4E391C206885
:1021A00001360568AB689847711E09780029F6D199
:1021B0007A480E1CFFF72CFE6648FFF729FE784888
:1021C000784A794F794B04300025167001900095BC
:1021D0009B463E1C009976480131002200919046B2
:1021E00082463768002F00D184E0FFF789FD57460B
:1021F0002D212068013703689A689047791E097875
:102200000029F6D10098FFF79BFD20682E21056874
:10221000AF68B847012080444046FFF791FD654D07
:1022200020212068013503689A689047691E097863
:102230000029F6D137683D682978002907D0206841
:10224000013503689A68904729780029F7D15A48E0
:10225000FFF7DEFDC820FEF7FBFB584F58495846F4
:1022600000233860574820CE0B708946002101605A
:1022700041608160C16001616B68002B00D09847AC
:10228000EA689047AD68002D00D0A847FFF798FE98
:1022900048460178002953D04B4D2D212068013547
:1022A00003689A689047681E01780029F6D147496B
:1022B0000868FFF745FD464D202120680135036879
:1022C0009A689047681E01780029F6D139685D4602
:1022D000594508D920682978036801359A689047DC
:1022E00038688542F6D33B48FFF792FD3768002FE8
:1022F00000D07AE7019D40CD0195002E00D069E71E
:10230000FFF7FEFC1348FFF783FD334F462120689B
:10231000013703689A689047791E09780029F6D139
:10232000204C207800280FD12C48FFF771FD1D4D5F
:10233000287803B03CBC90469946A246AB46F0BD17
:102340002748FFF765FD4CE72648FFF761FDEEE7FC
:102350004010002038690008545F0008705F0008D2
:10236000755F0008D45F0008DD5F0008F05F0008BB
:10237000096000081C6000083D600008506000080B
:10238000596000086C600008796000088C600008E3
:10239000A5600008B8600008D1600008E46000088B
:1023A00020610008141000209061000844100020F3
:1023B000895F0008FD600008985F00081010002089
:1023C0000C1000202C1000209D5F00080810002039
:1023D00001610008B45F000805610008C45F0008DF
:1023E000B85F0008CC5F0008C046C046C046C04683
:1023F000F8B5434EB3699C68651C281CFEF7F8FAD3
:10240000011B071C4B4259410120FFF731FD0028F9
:1024100000D0F8BDB06981680220691A4B42594169
:10242000FFF726FD0028F4D1381CFEF7E1FA291A3F
:102430004B4259410320FFF71BFD0028E9D1B26947
:1024400004209368191B4B425941FFF711FD0028E6
:10245000DFD172B6B769B8680230B86062B6B169E8
:10246000A71C8A680520D11B4B425941FFF700FD8C
:102470000028CED1281CFEF7BBFA011B4B42594164
:102480000620FFF7F5FC0028C3D1B3699868391A14
:102490004F4279410720FFF7EBFC0028B9D1B7691B
:1024A0000820396C691A4B425941FFF7E1FC0028BA
:1024B000AFD1E71C381CFEF79BFA291A4D4269413F
:1024C0000920FFF7D5FC0028A3D1B5690A20AA6826
:1024D000B91A4B425941FFF7CBFC002899D1B36997
:1024E000186C391A4F4279410B20FFF7C1FC0028C4
:1024F00000D08EE772B6B669B460346462B688E71D
:10250000D0090020C046C046C046C046C046C046AE
:10251000F0B5474680B4294F294ABB699046294DFA
:102520009A682948982682B07600414600902B1C74
:10253000043A4868311CFEF74BFABA69234C92689A
:10254000234B606040460093311C2B1C053A006809
:10255000FEF73EFAB9691F4B8A6820604046009337
:10256000311C2B1C013A0069FEF732FABA691A498C
:10257000926843462061023A0091D868311C2B1CB6
:10258000FEF726FAE06072B6BF691449BA684046A1
:102590000091033A311C2B1C8068FEF7F1F9A06012
:1025A00062B6A068FEF73CFAFFF70AFD0C4901206D
:1025B000FFF776FC02B004BC9046F0BDD0090020C5
:1025C000305F0008C1260008B06100082C10002010
:1025D000C4610008B4610008B8610008BC6100086B
:1025E000C0610008C046C046C046C046C046C0469E
:1025F000F0B5474680B4274F274ABB699046274D20
:102600009A682748982682B07600414600902B1C95
:10261000053A0868311CFEF7DBF9BA69214C92686B
:10262000214B206040460093311C2B1C043A40682B
:10263000FEF7CEF9B9691D4B8A6860604046009389
:10264000311C2B1C033A8068FEF7C2F9BA6918499D
:1026500092684346A060023A0091D868311C2B1C56
:10266000FEF7B6F9BF691349BA68E0604046013A1F
:102670002B1C00910069311CFEF7AAF92061FFF7BD
:102680009FFC0D490120FFF70BFC02B004BC9046F3
:10269000F0BDC046D0090020305F0008C126000808
:1026A000C46100082C100020B0610008BC61000863
:1026B000B8610008B4610008C0610008C046C046A7
:1026C00008B50078FFF7C4FB002008BDC046C0462F
:1026D00038B5FFF7BDFC1C4D6420EC68FEF7B8F977
:1026E000211C221C643165320120FFF729FC0028DF
:1026F00000D038BDEC686420FEF7AAF9211C221C2A
:10270000643165320220FFF71BFC0028F1D1FA206A
:102710008000EC68FEF79CF9FA230C4A99006118D6
:10272000A2180320FFF70CFC0028E2D1ED682C1C56
:102730006434201CFEF794F92A1C6532211C042005
:10274000FFF7FEFBD5E7C046C0090020E903000003
:1027500008B502480021FEF77BFA08BD00080020FA
:1027600008B502480021FEF773FA08BD00080020F2
:1027700008B502480021FEF76BFA08BD00080020EA
:1027800000B587B003A80021FEF762FA03A8002174
:10279000FEF79EFA059B0120591E0B43D90FFFF748
:1027A00067FB002801D007B000BD2A482A4982698A
:1027B00003AB926800939823013A08685900274BAD
:1027C000FEF706F9264A106003A8FEF7A9FA059855
:1027D000411E0843C10F0220FFF74AFB0028E2D147
:1027E00072B6059B002B2CDDFEF78AF862B6059ABF
:1027F000D017811AC90F0320FFF73AFB0028D2D166
:102800000599042001394B425941FFF731FB00285B
:10281000C9D172B6059B002B17DDFEF771F862B6C1
:10282000059AD017811AC90F0320FFF721FB002852
:10283000B9D10599052001394B425941FFF718FBE1
:10284000B1E703A8FEF7B4FACEE703A8FEF7B0FAA3
:10285000E3E7C046D0090020305F00087128000877
:102860002C100020C046C046C046C046C046C046E8
:1028700008B572B68368002B04DDFEF741F862B636
:10288000002008BDFEF794FAF7E7C046C046C046F0
:1028900010B5044C201CFEF743FA201CFEF770FA1A
:1028A000002010BD00080020C046C046C046C046FB
:1028B00010B5041C0348FEF733FA2078FFF7C8FA76
:1028C000002010BD00080020C046C046C046C046DB
:1028D00008B53220FEF7BCF872B60448FEF768FA75
:1028E000FEF70EF862B6002008BDC04600080020C2
:1028F000F0B5474680B4414F414CB869236884B075
:10290000404E826840490393982505320091331C5C
:10291000884603986900FEF75BF83C4D6268BB6926
:10292000286002923A489A68982101320090490042
:10293000331C0298FEF74CF8A268BB6968600292EB
:1029400034489A689821033200904900331C029859
:10295000FEF73EF8E268BB69A86002922E489A68CA
:102960009821043200904900331C0298FEF730F899
:10297000BA6924699268294B982149000232E860BB
:102980000093201C331C0294FEF722F8244C28618B
:10299000201CFEF7F5F9201CFEF7F2F9201CFEF7CB
:1029A000EFF9201CFEF7ECF9201CFEF7E9F9FFF720
:1029B00007FB01201B49FFF773FA00281AD1BF69F2
:1029C0004046BA6898230090590005320398331C9A
:1029D000FDF7FEFF286072B60221201CFEF700FA08
:1029E00062B6FFF7EDFAA168022001394B42594166
:1029F000FFF73EFA04B004BC9046F0BDD0090020B9
:102A0000305F0008B1280008B46100082C100020D5
:102A1000B8610008BC610008B0610008C46100082A
:102A200000080020C0610008C046C046C046C0463D
:102A300010B51E4B1E4C986982B082680021982305
:102A400001320091206859001A4BFDF7C1FF1A4C62
:102A50001A4A211C1060201CFEF70AFA2068011B8C
:102A60004B4259410120FFF703FA002801D002B080
:102A700010BDA368022059425941FFF7F9F9002817
:102A8000F5D1211C201CFEF7F3F921680320091B56
:102A90004B425941FFF7ECF90028E8D1A168042026
:102AA0004B425941FFF7E4F9E1E7C046D009002065
:102AB000305F000891280008000800202C1000203A
:102AC00030B5894C83B00021201CFEF751F9411C20
:102AD0004B4259410120FFF7CBF9002801D003B048
:102AE00030BD22680220111B4B425941FFF7C0F94B
:102AF0000028F4D1A068414241410320FFF7B8F912
:102B00000028ECD1794B7A4D996998238A6859004D
:102B1000013A784B00902868FDF75AFF764AFA216F
:102B200010604900201CFEF723F9051CFFF748FA46
:102B3000694269410420FFF79BF90028CFD1206842
:102B4000011B4B4259410520FFF792F90028C6D1DD
:102B5000A368062059425941FFF78AF90028BED1DF
:102B6000FFF776FA654A4120D568FFF771F9FA2137
:102B70004900201CFEF7FCF8411C4B42594107203C
:102B8000FFF776F90028AAD12068011B4B42594172
:102B90000820FFF76DF90028A1D1A3680920594248
:102BA0005941FFF765F9002899D14220FFF750F904
:102BB000FA225100201CFEF7DBF8411C4B42594120
:102BC0000720FFF755F9002800D088E72168082082
:102BD000091B4B425941FFF74BF9002800D07EE713
:102BE000A068414241410920FFF742F9002800D086
:102BF00075E74320FFF72CF9FA235900201CFEF754
:102C0000B7F8411C4B4259410720FFF731F9002822
:102C100000D064E722680820111B4B425941FFF79E
:102C200027F9002800D05AE7A06841424141092015
:102C3000FFF71EF9002800D051E74420FFF708F9FC
:102C4000FA214900201CFEF793F8411C4B425941E0
:102C50000720FFF70DF9002800D040E7236808207F
:102C6000191B4B425941FFF703F9002800D036E702
:102C7000A268092051425141FFF7FAF8002800D01C
:102C80002DE74520FFF7E4F8FA214900201CFEF764
:102C90006FF8411C4B4259410720FFF7E9F8002823
:102CA00000D01CE72068011B4B4259410820FFF768
:102CB000DFF8002800D012E7A16809204B425941F3
:102CC000FFF7D6F8002800D009E70A200C49FFF7E3
:102CD000E7F8002800D002E70A4C0B4B2919EA1844
:102CE0000B20FFF72DF9FAE600080020D00900209C
:102CF000305F0008D12800082C100020C0090020F7
:102D0000C0610008C4090000C9090000C046C046EF
:102D1000F0B5194B194F986919498668982583B001
:102D20006D00721C00913868291C164BFDF750FE8F
:102D3000154C164B2060B21C0093291C7868144B6C
:102D4000FDF746FEF21C134E291C134B6060B86859
:102D50000096FDF73DFE114FA060381CFEF7D0F93C
:102D6000381CFEF7CDF9FFF72BF90D490120FFF7CD
:102D700097F803B0F0BDC046D0090020305F0008CE
:102D8000B4610008212E00082C100020BC6100084E
:102D9000F12D0008B8610008B12D00082C080020B2
:102DA00040630008C046C046C046C046C046C04654
:102DB00010B5041C0448FEF7FBF82078FFF748F82C
:102DC000FEF716F9002010BD1C080020C046C046C2
:102DD00010B5041C0448FEF7EBF82078FFF738F82C
:102DE000FEF706F9002010BD0C080020C046C046C2
:102DF00010B5041C0648FEF7DBF80648FEF7E8F9B4
:102E00002078FFF725F8FEF7F3F8002010BDC04644
:102E10000C0800202C080020C046C046C046C04612
:102E200010B5041C0948FEF7C3F80948FEF7C0F8BE
:102E3000012149420748FEF7FBF92078FFF708F81F
:102E4000FEF7D6F8FEF7D4F8002010BD1C080020CD
:102E50000C0800202C080020C046C046C046C046D2
:102E600008B50548FEF744F90448FEF731F8044870
:102E7000FEF72EF808BDC0462C0800200C080020E4
:102E80001C080020C046C046C046C046C046C046DA
:102E900008B50348FEF72CF90248FEF719F808BDFB
:102EA0002C0800200C080020C046C046C046C04682
:102EB00008B50348FEF71CF90248FEF709F808BDFB
:102EC0002C0800200C080020C046C046C046C04662
:102ED00008B50248FDF7FCFF08BDC0460C080020FD
:102EE00008B50348FDF7F4FF0248FDF7F1FF08BD00
:102EF0000C0800201C080020C046C046C046C04642
:102F000008B50348FDF7E4FF0248FDF7E1FF08BDFF
:102F10000C0800201C080020C046C046C046C04621
:102F200008B50248FDF7D4FF08BDC0460C080020D4
:102F300008B50248FDF7CCFF08BDC0460C080020CC
:102F4000F0B5474680B4244B244A98699046876878
:102F5000234D2449982682B0760044467A1C00917D
:102F60002B1C311C2068FDF733FD1F4C1F4B2060CC
:102F70004046BA1C0093311C2B1C4068FDF728FD0D
:102F80001B4943466060FA1C00919868311C2B1C59
:102F9000FDF71EFDA060174841463A1D00902B1C0E
:102FA000C868311CFDF714FD4246E06010697A1DC7
:102FB000114F311C2B1C0097FDF70AFD20610F48B3
:102FC000FEF7D6F8FEF7FCFF0D490120FEF768FF7B
:102FD00002B004BC9046F0BDD0090020305F00086C
:102FE000F12D0008C46100082C100020B061000819
:102FF000BC610008B8610008B46100082C0800201A
:10300000C0610008C046C046C046C046C046C04673
:10301000F0B5474680B42D4B2D4A98699046876895
:103020002C4D2D49982682B0760044467A1C00919A
:103030002B1C311C2068FDF7CBFC284C284B206052
:103040004046BA1C0093311C2B1C4068FDF7C0FCA5
:10305000244943466060FA1C00919868311C2B1C7F
:10306000FDF7B6FCA060204841463A1D00902B1C9D
:10307000C868311CFDF7ACFC4246E06010697A1D5F
:103080001A4F311C00972B1CFDF7A2FC206172B671
:10309000174E301CFEF744F8301CFEF741F8301C88
:1030A000FEF73EF8301CFEF73BF8301CFEF738F810
:1030B000FDF726FC62B6FEF783FF0E490120FEF7FE
:1030C000EFFE02B004BC9046F0BDC046D00900201F
:1030D000305F0008F12D0008C46100082C100020AA
:1030E000B0610008BC610008B8610008B461000864
:1030F0002C080020C0610008C046C046C046C0463B
:10310000F0B5474680B42F4A84B093692E489C6836
:103110009046FDF74DFF2D4F2D4E38682D490390F9
:103120009825621C331C009103986900FDF750FC40
:103130007A68294D294B039298212860A21C00939C
:103140004900331C0398FDF743FC6860B868244BC2
:1031500003909821E21C00934900331C0398FDF76B
:1031600037FCFA68A8601F4803929823221D590073
:103170000090331C0398FDF72BFC3F691A499823F4
:10318000621DE8600091381C5900331C0397FDF75D
:103190001FFC46462861FDF72BFFFEF711FFB569BE
:1031A0000120AA68141B61426141FEF761FE0028FC
:1031B00003D102200D49FEF773FE04B004BC904613
:1031C000F0BDC046D00900200C080020305F000888
:1031D000D12D0008C46100082C100020B061000847
:1031E000BC610008B8610008B4610008C061000853
:1031F00070B5274D274CAB69201C9E68FDF7E0FE9B
:10320000011C0120FEF734FE002800D070BD201CF8
:10321000FDF7D6FE0122011C5140C9B20220FEF783
:1032200027FE0028F2D172B6FDF712FF62B62068C1
:10323000011B4B4259410320FEF71AFE0028E5D13D
:10324000A368042059425941FEF712FE0028DDD13F
:10325000AD690520AA68911B4E427141FEF708FE38
:103260000028D3D1201CFDF7A3FEFDF719FF266827
:103270000620311B4B425941FEF7FAFD0028C5D10B
:10328000A16807204B425941FEF7F2FDBEE7C04658
:10329000D00900200C080020C046C046C046C046E9
:1032A000F0B55F4656464D464446F0B4814D8249DE
:1032B000AB690A689C6885B0804E814B8946029252
:1032C000A01C671C9821804600934900331C3A1CBF
:1032D0000298FDF77DFBB3467A4E7B493060484645
:1032E00042687A4B0392982200910398510042461B
:1032F0009A46FDF76DFB706075488146FDF758FEF4
:10330000AB6901209968091B4B425941FEF7B0FD9A
:10331000002806D005B03CBC90469946A246AB4674
:10332000F0BD6420FDF794FBAA699068C11B4B4275
:1033300059410220FEF79CFD0028EBD16548FDF7BE
:1033400037FEAB6903209968C91B4B425941FEF710
:103350008FFD0028DED16420FDF77AFBAA69434681
:103360009068C11A4B4259410420FEF781FD0028A4
:10337000D0D1FDF73DFEA96905208A68D11B4B42DB
:103380005941FEF775FD0028C4D16420FDF760FBAC
:10339000A86983680620D91B4B425941FEF768FD96
:1033A0000028B7D1FDF77CFEA96907208A68111BA8
:1033B0004B425941FEF75CFD0028ABD1FEF700FE01
:1033C00045489823590000903A1C5B460298FDF747
:1033D000FFFA424998223060534600910398510009
:1033E0004246FDF7F5FA70604846FDF7E1FDAE692B
:1033F000B068011B4B4259410820FEF739FD0028F7
:1034000000D087E76420FDF723FBAB6909209968AA
:10341000C91B4B425941FEF72BFD002800D079E72C
:103420002C48FDF7C5FDAA690A209668F11B4B429E
:103430005941FEF71DFD002800D06BE76420FDF721
:1034400007FBA869434681680B20C91A4B425941C2
:10345000FEF70EFD002800D05CE772B6FDF7F8FD20
:1034600062B6AA690C209668F11B4B425941FEF7DF
:10347000FFFC002800D04DE76420FDF7E9FAA869B9
:1034800081680D20C91B4F427941FEF7F1FC0028ED
:1034900000D03FE7FDF704FEAD690E20AF68391B91
:1034A0004C426141FEF7E4FC002800D032E7FEF711
:1034B00087FD2FE7D0090020305F000801350008A4
:1034C000B86100082C100020B4610008E134000845
:1034D0001C0800200C080020B0610008BC61000836
:1034E00008B59620FDF7B4FA0348FDF761FDFDF736
:1034F0007FFD002008BDC0460C080020C046C04625
:1035000008B53220FDF7A4FA0348FDF751FDFDF799
:103510006FFD002008BDC0461C080020C046C04604
:10352000F0B5474680B484B0FEF792FD2D4E2E4B89
:103530002E4FDA68B169386890468A680025039092
:1035400098246100053A0095294B0398FDF740FA4D
:10355000B2697B68274C9268039398212060043AF3
:1035600000954900244B0398FDF732FAB369606077
:10357000B8689A6803909821033A009549001F4B58
:103580000398FDF725FAFA68A060B0690392826893
:1035900098235900023A0095194B0398FDF718FA41
:1035A000B6693F69B268E060009598256900013A04
:1035B000144B381C0397FDF70BFA2061FEF700FD52
:1035C00001201149FEF76CFC002806D14146424615
:1035D0006E3173320220FEF7B3FC04B004BC904697
:1035E000F0BDC046D0090020C0090020305F0008AF
:1035F000813700082C1000204137000811370008DF
:10360000F1360008C1360008C0610008C046C04657
:10361000F0B5474680B484B0FEF71AFD204E214B2A
:10362000214FDA68B169386890468A6800250390AE
:1036300098246100013A1D4B00950398FDF7C8F9E5
:10364000B2697B681A4C9268039398212060023A11
:103650004900184B00950398FDF7BAF96060B0690E
:10366000BF68826898267100033A134B0095381C96
:103670000397FDF7ADF9A060FEF7A2FC01200F490A
:10368000FEF70EFC002806D14146424664316932FD
:103690000220FEF755FC04B004BC9046F0BDC046C5
:1036A000D0090020C0090020305F0008F137000871
:1036B0002C100020D1370008A13700084063000813
:1036C00008B53220FDF7C4F90648FDF771FC0A2061
:1036D000FEF79EFCFDF78CFC4120FEF7B9FB0020B5
:1036E00008BDC0461C080020C046C046C046C046B3
:1036F00008B52820FDF7ACF91420FEF789FC42201C
:10370000FEF7A6FB002008BDC046C046C046C04626
:1037100008B51420FDF79CF90648FDF749FC0A207E
:10372000FEF776FCFDF764FC4320FEF791FB0020DA
:1037300008BDC0461C080020C046C046C046C04662
:1037400008B50A20FDF784F90B48FDF731FC142079
:10375000FEF75EFC0948FDF72BFC0A20FEF758FC3B
:10376000FDF746FC0A20FEF753FCFDF741FC442020
:10377000FEF76EFB002008BD1C0800200C0800208E
:1037800008B50648FDF714FC1E20FEF741FCFDF7C6
:103790002FFC4520FEF75CFB002008BD0C08002034
:1037A00008B50848FDF704FC2820FEF731FCFDF7BA
:1037B0001FFC0A20FEF72CFC4320FEF749FB0020EB
:1037C00008BDC0460C080020C046C046C046C046E2
:1037D00008B51420FDF73CF92820FEF719FC42201B
:1037E000FEF736FB002008BDC046C046C046C046B6
:1037F00008B52820FDF72CF90648FDF7D9FB0A206B
:10380000FEF706FCFDF7F4FB4120FEF721FB00204C
:1038100008BDC0460C080020C046C046C046C04691
:1038200010B5184B184A996910688A6882B09824B4
:1038300001320091154B6100FDF7CAF8144B186076
:10384000FDF76EFE446B211CFDF78AFEE0B2FEF729
:10385000FFFAFDF765FE446B211CFDF781FEE0B227
:10386000FEF7F6FAFDF75CFE446B211CFDF778FECF
:10387000E0B2FEF7EDFA07490120FEF711FB02B0B6
:1038800010BDC046D0090020305F0008A1380008F4
:103890002C10002040630008C046C046C046C04609
:1038A00010B54121041CFDF71BFE201C4221FDF731
:1038B00017FE201C4321FDF713FE002010BDC0465B
:1038C00070B55E4C82B0616A012005394B425941A6
:1038D000FEF7CEFA002840D101224221201C52429C
:1038E000FDF796FE414241410220FEF7C1FA002851
:1038F00033D101234321201C5A42FDF789FE414266
:1039000041410220FEF7B4FA002826D101254421C6
:10391000201C6A42FDF77CFE414241410220FEF735
:10392000A7FA002819D101264521201C7242FDF773
:103930006FFE414241410220FEF79AFA00280CD165
:1039400001224121201C5242FDF7A2FE4142414189
:103950000320FEF78DFA002801D002B070BD582177
:10396000201C0122FDF754FE411C4B42594104200A
:10397000FEF77EFA0028F0D172B65821201CFDF720
:103980004FFE62B6411C4B4259410520FEF770FACA
:103990000028E2D15821201C0122FDF779FE411CAC
:1039A0004B4259410620FEF763FA0028D5D172B682
:1039B0005821201CFDF774FE62B6411C4B42594150
:1039C0000720FEF755FA0028C7D172B6606A414257
:1039D00041410820FEF74CFA62B60028BDD172B60C
:1039E000A169092005394B425941FEF741FA62B6F7
:1039F0000028B2D172B6A368E1680A20C91A4B4206
:103A00005941FEF735FA62B60028A6D1052506E031
:103A10006A461079013DFEF71BFA002D10D00126F1
:103A200001A9201C7242FDF77BFE414241410B205F
:103A3000FEF71EFA0028EBD08FE7C04634080020BE
:103A4000A64D0C20291CFEF72BFA002800D084E795
:103A500001234721201C5A42FDF7DAFD4142414132
:103A60000D20FEF705FA002800D076E7012601A90F
:103A7000201C7242FDF754FE414241410E20FEF7E8
:103A8000F7F9002800D068E72068A168411A4B4286
:103A900059410F20FEF7ECF9002800D05DE72368BC
:103AA000E2681020991A4B425941FEF7E1F90028CB
:103AB00000D052E701A9201C0122FDF731FE411C74
:103AC0004B4259411120FEF7D3F9002800D044E7BA
:103AD00072B6201C01A9FDF72BFE62B6411C4B42B9
:103AE00059411220FEF7C4F9002800D035E772B61C
:103AF000616A132005394B425941FEF7B9F962B6A4
:103B0000002800D029E772B6A669142071427141DD
:103B1000FEF7AEF962B6002800D01EE772B6E06884
:103B2000A168411A4B4259411520FEF7A1F962B62E
:103B3000002800D011E772B64121201CFDF770FD6E
:103B4000414241411620FEF793F9002800D004E7D6
:103B50004221201CFDF764FD414241411720FEF740
:103B600087F9002800D0F8E64321201CFDF758FD16
:103B7000414241411820FEF77BF9002800D0ECE6D5
:103B80004421201CFDF74CFD414241411920FEF724
:103B90006FF9002800D0E0E6201C4521FDF740FD2C
:103BA00062B6414241411A20FEF762F9002800D076
:103BB000D3E6E368A2681B20991A4B425941FEF7ED
:103BC00057F9002800D0C8E6052672B6201C01A9C6
:103BD000FDF7AEFD62B6414241411C20FEF748F9B7
:103BE000002800D0B9E668460079013EFEF730F9BA
:103BF000002EEAD11D20291CFEF752F9002800D022
:103C0000ABE672B6616A1E2005394B425941FEF798
:103C10002FF962B6002800D09FE672B6A3691F2074
:103C200059425941FEF724F962B6002800D094E6C3
:103C3000E168A2682020891A4B425941FEF718F921
:103C4000002800D089E672B64521201CFDF728FD2A
:103C5000414241412120FEF70BF9002800D07CE6CB
:103C60004421201CFDF71CFD414241412220FEF76A
:103C7000FFF8002800D070E64321201CFDF710FD5E
:103C8000414241412320FEF7F3F8002800D064E6CA
:103C90004221201CFDF704FD414241412420FEF752
:103CA000E7F8002800D058E6201C4121FDF7F8FC79
:103CB00062B6414241412520FEF7DAF8002800D0E3
:103CC0004BE6A068E668311A4B4259412620FEF7C0
:103CD000CFF8002800D040E6052601E0C0610008CA
:103CE00072B6201C01A9FDF723FD62B64142414195
:103CF0002720FEF7BDF8002800D02EE66B46187985
:103D0000013EFEF7A5F8002EEAD12820291CFEF777
:103D1000C7F8002800D020E672B6616A292005396C
:103D20004B425941FEF7A4F862B6002800D014E6D1
:103D300072B6A5692A2069426941FEF799F862B610
:103D4000002800D009E6E168A2682B20891A4B42BE
:103D50005941FEF78DF8002800D0FEE5201CFDF744
:103D60001FFC72B6616A2C2005394B425941FEF79F
:103D70007FF862B6002800D0EFE572B6A069414234
:103D800041412D20FEF774F862B6002800D0E4E52A
:103D900072B6A36826682E20F11A4B425941FEF7ED
:103DA00067F862B6002800D0D7E572B62568E468E7
:103DB0002F20291B4B425941FEF75AF862B6CCE539
:103DC00008B5034803490522FDF7D2FB08BDC046EC
:103DD00034080020180A0020C046C046C046C0462D
:103DE00008B501204042FDF74BFA08BDC046C04669
:103DF00008B501204042FDF743FA08BDC046C04661
:103E000008B501204042FDF73BFA08BDC046C04658
:103E1000F0B54F464646C0B405208DB0FDF740FAD8
:103E200001204042FDF7B4FA411E4B4259410120A6
:103E3000FEF71EF8002804D00DB00CBC9046994641
:103E4000F0BD01214842FDF7A3FA011F4B42594141
:103E50000220FEF70DF80028EED101225042FDF7B6
:103E60000FFA414241410320FEF702F80028E3D156
:103E7000FEF7EEF86D4E6E4BB0691D6882686D4FAF
:103E800003956D4B9821FC684900013A0090039816
:103E90009846FCF79DFD694D012228605042FDF7D0
:103EA00077FA211C221C8146323137320420FEF77A
:103EB00047F80028C0D1494601394B4259410520F5
:103EC000FDF7D6FF0028B7D101246042FDF7D8F9ED
:103ED000414241410620FDF7CBFF0028ACD1FEF75F
:103EE0006FF80520FDF7DCF901235842FDF768FA69
:103EF000411F4B4259410720FDF7BAFF00289BD1D3
:103F000001204042FDF7BCF9414241410820FDF744
:103F1000AFFF002800D08FE7FEF79AF8B169982329
:103F20008A68FC68013A0091039859004346FCF7FF
:103F30004FFD012228605042FDF742FA211C221C4D
:103F40008046323137320920FDF7FAFF002800D0D1
:103F500072E7414601394B4259410A20FDF788FF7B
:103F6000002800D068E701204042FDF789F941426E
:103F700041410B20FDF77CFF002800D05CE7FEF7F5
:103F80001FF82F4C0122211C0C60A1462D4C4846E5
:103F900004A92460FDF754F908A90422201CFDF7A8
:103FA0004FF9FEF755F8B669274BB2689821FF68BC
:103FB000013A490000930398244BFCF709FD28605F
:103FC0000520FDF715FA391C3A1C323137320C2026
:103FD000FDF7B6FF002800D02EE701256842FDF767
:103FE0004FF9414241410D20FDF742FF002800D02A
:103FF00022E7FDF7E5FF484604A9FDF731F9201C4B
:1040000008A9FDF72DF94A461068811A4B4259411B
:104010000E20FDF72DFF002800D00DE726680F20A9
:10402000311B4C426141FDF723FF05E7D009002019
:10403000305F0008C0090020814000082C100020DB
:104040005C08002060080020B461000851400008AE
:1040500008B500210548FDF773F93220FCF7F8FC9C
:1040600003480021FDF76CF9002008BD5C08002022
:1040700060080020C046C046C046C046C046C04694
:1040800010B5041C3220FCF7E3FC201C0121FDF7D5
:1040900037F9002010BDC046C046C046C046C046E5
:1040A00010B51D4C88B0201C694601222460FDF724
:1040B000C7F8201C04A90222FDF7C2F823680120DA
:1040C000191B4B1E9941FDF7D3FE002801D008B003
:1040D00010BD201C6946FDF7C3F82068011B4B1E6C
:1040E00099410220FDF7C4FE0028F0D1201C04A94C
:1040F000FDF7B6F8216803200A1B51425141FDF734
:10410000B7FE0028E3D105480721FDF721F904494E
:104110000420FDF7C5FEDAE75C080020A065000872
:1041200040630008C046C046C046C046C046C046C0
:1041300008B54320FDF78CFE08BDC046C046C0460A
:1041400008B54220FDF784FE08BDC046C046C04603
:1041500008B54120FDF77CFE08BDC046C046C046FC
:10416000012008B500214042FDF75AF94142414182
:104170000120FDF77DFE002800D008BD0121484246
:104180000021FDF76DF9414241410220FDF770FE2B
:104190000028F2D1012200215042FDF781F941426D
:1041A00041410320FDF764FE0028E6D101230A21E6
:1041B0005842FDF735F9414241410420FDF758FED0
:1041C0000028DAD101200A214042FDF749F9414295
:1041D00041410520FDF74CFE0028CED10121484287
:1041E0000A21FDF75DF9414241410620FDF740FEFD
:1041F000C3E7C046C046C046C046C046C046C046EB
:10420000F0B583B0FDF754FC01A90020FDF700FDD7
:1042100010210020FDF77CFC011C041C4B1E994161
:104220000120FDF725FE002801D003B0F0BD201CC1
:10423000FDF7AEFC7C490020FDF76AFC414241419C
:104240000220FDF715FE0028EFD1784C01A9201CB3
:10425000FDF7DEFC1021201CFDF75AFC1021071C85
:10426000201CFDF755FC1021061C201CFDF750FCFE
:10427000051C381CFDF78CFC301CFDF789FC281C44
:10428000FDF786FC6946201CFDF7C2FC411E4B422F
:1042900059410320FDF7ECFD0028C6D11021201C58
:1042A000FDF736FC1021071C201CFDF731FC102106
:1042B000061C201CFDF72CFCFDF76AFC301CFDF7EA
:1042C00067FC381CFDF764FC6946201CFDF7A0FC68
:1042D000411E4B4259410420FDF7CAFD0028A4D1DC
:1042E0001121201CFDF714FC1021051C201CFDF7DA
:1042F0000FFC071C281CFDF74BFC6946201CFDF732
:1043000087FC811E4B4259410520FDF7B1FD002875
:1043100000D08AE71021201CFDF7FAFB6946061C35
:10432000201CFDF775FC0121012806D06946201CE0
:10433000FDF76EFC811E4B4259410620FDF798FDAA
:10434000002800D071E7381CFDF722FC301CFDF777
:104350001FFC6946201CFDF75BFC411E4B42594186
:104360000720FDF785FD002800D05EE71021201C06
:10437000FDF7CEFB1021071C201CFDF7C9FB051C17
:10438000381CFDF705FC6946201CFDF741FC811E29
:104390004B4259410820FDF76BFD002800D044E74F
:1043A0002021201CFDF7B4FBFDF7F2FB281CFDF7D4
:1043B000EFFB6946201CFDF72BFC411E4B42594187
:1043C0000920FDF755FD002800D02EE76946201C86
:1043D000FDF71EFC0099201CFDF79AFB6946061CA0
:1043E000201CFDF715FC414241410A20FDF740FD2C
:1043F000002800D019E7301CFDF7CAFB6946201CD5
:10440000FDF706FC411E4B4259410B20FDF730FDE4
:10441000002800D009E7019B009A0C20D11A4B42DA
:104420005941FDF725FD00E700FFFFFF5810002070
:1044300008B5BE2202480349D200FDF759FB08BD6A
:1044400058100020180A0020C046C046C046C0468A
:1044500000207047C046C046C046C046C046C04661
:1044600008B59821024849000022FDF7F1FB08BD7C
:1044700064080020C046C046C046C046C046C0468C
:1044800030B55C4D5C4C2B6883B0191C201C052298
:104490000193FDF7E5FB201CFDF712FC011C481EF3
:1044A00081410120FDF7E4FC002800D092E0201CAF
:1044B000FDF706FC011C481E81410120FDF7D8FCD8
:1044C000002800D086E0201CFDF7FAFB011C481EE6
:1044D00081410120FDF7CCFC00287BD1201CFDF799
:1044E000EFFB011C481E81410120FDF7C1FC0028A3
:1044F00070D1201CFDF7E4FB011C481E8141012006
:10450000FDF7B6FC002865D1201CFDF7D9FB414220
:1045100041410220FDF7ACFC00285BD1201C019931
:10452000FDF7DEFB6968201C0191FDF7D9FBAA6845
:10453000201C111C0192FDF7D3FBEB68201C191CF9
:104540000193FDF7CDFB2D69201C291C0195FDF77A
:10455000C7FB201CFDF7B4FB011C481E8141032052
:10456000FDF786FC002835D1201CFDF7A9FB011CB6
:10457000481E81410320FDF77BFC00282AD1201C26
:10458000FDF79EFB011C481E81410320FDF770FCD6
:1045900000281FD1201CFDF793FB011C481E814100
:1045A0000320FDF765FC002814D1201CFDF788FBD3
:1045B000011C481E81410320FDF75AFC002809D147
:1045C000201CFDF77DFB414241410420FDF750FCDA
:1045D000002801D003B030BD201C1021074AFDF790
:1045E00037FB201CFDF76CFB414241410520FDF7E4
:1045F0003FFCEFE7305F00086408002051440008EA
:1046000038B5051CFCF7FCFA0024431B5A42534101
:104610001C43FCF705FB0028F7D1201C38BDC04621
:1046200010B5434B4349986982B082689824009141
:10463000414B6100013A4148FCF7A2FA817F041C1A
:1046400001394B4259410120FDF712FC002801D0ED
:1046500002B010BD201CFCF763FAA17F02200239D2
:104660004B425941FDF704FC0028F1D1201CFCF716
:104670005FFAA17F032001394B425941FDF7F8FB56
:104680000028E5D1201CFFF7BBFF011C0420FDF72B
:10469000EFFB0028DCD1201CFFF7B2FF011C052036
:1046A000FDF7E6FB0028D3D1201CFCF741FAA17FDF
:1046B00006204B425941FDF7DBFB0028C8D1217F82
:1046C00007204B425941FDF7D3FB0028C0D1201CE5
:1046D000FFF796FF011C0820FDF7CAFB0028B7D1A1
:1046E000201CFFF78DFF011C0920FDF7C1FB0028EE
:1046F000AED13220FCF7ACF9217F0A200E394B42B3
:104700005941FDF7B5FB0028A2D1201CFFF778FF27
:10471000011C0B20FDF7ACFB002899D1201CFFF7F2
:104720006FFF01224240D1B20C20FDF7A1FB8FE7C1
:10473000D0090020B461000841470008881000201B
:1047400008B50078FDF784FB002008BDC046C046D0
:1047500008B5BE2202480349D200FDF7C9F908BDD9
:1047600088100020180A0020C046C046C046C04637
:1047700008B5BE2202480349D200FDF7B9F908BDC9
:1047800088100020180A0020C046C046C046C04617
:10479000F0B54D4B4D4D4E4C9869296883B08768F4
:1047A000201C0191FDF79CFA6A68201C111C0192E3
:1047B000FDF796FAAE68201C311C0196FDF790FAC1
:1047C000EB68201C191C0193FDF78AFA414E791EF3
:1047D000321C414B201CFCF7F3F9404DB91E2860F8
:1047E000321C3F4B201CFCF7EBF9F91E6860321CB1
:1047F0003C4B201CFCF7E4F9391FA860321C3A4BF3
:10480000201CFCF7DDF9791FE860321C201C374BB7
:10481000FCF7D6F92F682861002F11D069680029AC
:104820000ED0AA68002A0BD0EB68002B08D04142BA
:1048300041410120FDF71CFB002807D003B0F0BD6B
:1048400000210120FDF714FB0028F7D1FDF7B8FB8C
:1048500002202749FDF724FB0028EFD1201CFDF79B
:104860002FFA011C481E81410320FDF701FB00289F
:10487000E4D1201CFDF724FA011C481E81410320CD
:10488000FDF7F6FA0028D9D1201CFDF719FA011C12
:10489000481E81410320FDF7EBFA0028CED1201CF1
:1048A000FDF70EFA011C481E81410320FDF7E0FAD6
:1048B0000028C3D1201CFDF703FA414241410420E6
:1048C000FDF7D6FABAE7C046D0090020305F0008ED
:1048D0007810002041470008B46100082C10002027
:1048E000B8610008BC610008B0610008C46100083C
:1048F00080660008C046C046C046C046C046C046A6
:1049000008B59821024849000022FDF7A1F908BD29
:1049100078100020C046C046C046C046C046C046CB
:10492000F0B5474680B4374B374C986984B08768F8
:1049300003A9201CFDF76CF9344E354998257A1EE1
:104940000091331C6900201CFCF71AF9314D324BE1
:104950009821BA1E286049000093201C331CFCF7E4
:104960000FF902A96860201CFDF752F90299201C7A
:10497000FDF7CEF880462948FA1E98270090790066
:10498000331C201CFCF7FCF8A8604046FDF700F93A
:104990002A68002A2CD06E680021002E02D0AB6855
:1049A000002B27D00120FDF763FA002803D004B0C4
:1049B00004BC9046F0BDFDF703FB02201849FDF74B
:1049C0006FFA0028F3D102A9201CFDF721F9411E3E
:1049D0004B4259410320FDF74BFA0028E7D1029CD6
:1049E000039D0420611B4B425941FDF741FADEE76C
:1049F0000021D7E7E8680028D4D129694B42594102
:104A0000D0E7C046D00900208810002041470008A8
:104A1000B46100082C100020B8610008BC610008D7
:104A200088660008C046C046C046C046C046C0466C
:104A30007047C046C046C046C046C046C046C04695
:104A400008B503480021C822FCF772FF002008BD0A
:104A500070080020C046C046C046C046C046C0469A
:104A600000B5064B83B0002019680090042204486A
:104A7000044BFCF735FF03B000BDC046305F0008B3
:104A800070080020314A0008C046C046C046C046F3
:104A900008B50348C821FCF7CBFE002008BDC0467E
:104AA00094080020C046C046C046C046C046C04626
:104AB00000B5064B83B0002019680090042204481A
:104AC000044BFCF765FE03B000BDC046305F000834
:104AD00094080020314A0008C046C046C046C0467F
:104AE00030B585B072B67D4C00216269A3699A42E7
:104AF00000D1EBE00120FDF7BBF962B600284ED1F2
:104B000001256A42201C4121FCF712FF0122201CD2
:104B100042215242FCF70CFF01235A42201C432140
:104B20000125FCF705FF201C44216A42FCF700FF29
:104B300072B6A068414241410220FDF799F962B680
:104B400000282CD172B6201CFCF71AFF62B6C0B246
:104B5000FDF77EF972B6201CFCF712FF62B6C0B2F8
:104B6000FDF776F972B6201CFCF70AFF62B6C0B2F8
:104B7000FDF76EF972B6201CFCF702FF62B6C0B2F8
:104B8000FDF766F972B66369A2690021934200D10C
:104B9000A0E00320FDF76CF962B6002801D005B053
:104BA00030BD04204E49FDF77BF90028F7D172B6DD
:104BB000201CFCF7E5FEC11C4B4259410520FDF7C6
:104BC00057F962B60028EAD1464D00236968201CD7
:104BD00008220291FCF7FCFE011F4B4259410620BE
:104BE000FDF746F90028DAD172B6A068414241418A
:104BF0000720FDF73DF962B60028D0D13A4B2D6869
:104C00009A6998219268490000900132281C374B1C
:104C10000395FBF7DDFE364D286072B62069E36828
:104C2000A168C21A511A04394B4259410820FDF7B4
:104C30001FF962B60028B2D1FDF7C2F972B6201C86
:104C4000FCF75EFE62B672B6E0682569A2682B1AB0
:104C5000991A4B4259410920FDF70AF962B600281A
:104C600000D09CE7002302990222201CFCF7B0FE32
:104C7000811E4B4259410A20FDF7FAF8031E00D06D
:104C80008DE70299201C0222FCF7A2FE811E4B42F6
:104C900059410B20FDF7ECF8002800D07FE772B6F1
:104CA000A5680C2069426941FDF7E2F862B6002868
:104CB00000D074E7201C00210A22FCF739FE411CB9
:104CC0004B4259410D20FDF7D3F868E7A1684B1E10
:104CD00099410FE7A1684B1E99415AE770080020DF
:104CE00080660008305F0008D0090020414A0008B3
:104CF0002C100020C046C046C046C046C046C04634
:104D000030B585B072B6884C0120A268514251413D
:104D1000FDF7AEF862B600281ED172B64121201C04
:104D2000FCF75EFD201C4221FCF75AFD201C4321AC
:104D3000FCF756FD201C4421FCF752FD62B672B60A
:104D40006369A0690021834200D1E9E00220FDF7F8
:104D50008FF862B6002801D005B030BD72B60021D0
:104D6000201CFCF73DFD011D4B4259410320FDF77E
:104D70007FF862B60028EFD101214942201CFCF7E0
:104D800057FD0125C0B2FDF763F86942201CFCF70E
:104D90004FFDC0B2FDF75CF801225142201CFCF728
:104DA00047FDC0B2FDF754F801235942201CFCF71F
:104DB0003FFDC0B2FDF74CF872B6A06841424141D8
:104DC0000420FDF755F862B60028C5D105205749E3
:104DD000FDF766F80028BFD172B64121201CFCF710
:104DE000FFFC201C4221FCF7FBFC201C4321FCF7AC
:104DF000F7FC201C4421FCF7F3FC62B64C4D002369
:104E00006968201C08220391FCF732FD011F4B4208
:104E100059410620FDF72CF800289DD172B6A268F2
:104E2000072051425141FDF723F862B6002800D017
:104E300092E772B64121201CFCF7D2FC201C4221D3
:104E4000FCF7CEFC201C4321FCF7CAFC201C4421AB
:104E5000FCF7C6FC62B600230399201C0222FCF773
:104E600007FD811E4B4259410820FDF701F800283B
:104E700000D071E703990023201C0222FCF7F8FC04
:104E8000811E4B4259410920FCF7F2FF002800D057
:104E900062E772B6A3680A2059425941FCF7E8FF5D
:104EA00062B6002800D057E772B60021201CFCF73C
:104EB00097FC201CFCF77CFC62B672B6A0684142ED
:104EC00041410B20FCF7D4FF62B6002800D043E735
:104ED00018492D688A69039592680023281C982533
:104EE000009369000132144BFBF772FD134908600F
:104EF00072B6A068414241410C20FCF7B9FF62B68E
:104F0000002800D028E7FDF75BF8201C0A21FCF7F9
:104F10008FFC411C4B4259410D20FCF7A9FF1BE7B8
:104F2000A1684B1E994111E7940800208066000893
:104F3000305F0008D0090020914A00082C100020A2
:104F40007047C046C046C046C046C046C046C04680
:104F50007047C046C046C046C046C046C046C04670
:104F600010B52E48FCF73CFFCA204000FCF7E8FED5
:104F70002B4C201CFCF74CFF2A48FCF731FF482043
:104F8000FCF7DEFE201CFCF743FF2748FCF728FF58
:104F90001420FCF7D5FE201CFCF73AFF2348FCF751
:104FA0001FFF0C20FCF7CCFE201CFCF731FF204833
:104FB000FCF716FF0420FCF7C3FE201CFCF728FFBB
:104FC0001C48FCF70DFF1020FCF7BAFE201CFCF774
:104FD0001FFF1948FCF704FF1020FCF7B1FE201C4E
:104FE000FCF716FF1548FCF7FBFE0820FCF7A8FEAF
:104FF000201CFCF70DFF1248FCF7F2FE2420FCF702
:105000009FFE201CFCF704FF0E48FCF7E9FE282059
:10501000FCF796FE201CFCF7FBFE10BD2068000884
:1050200030680008386800084868000858680008B8
:1050300068680008786800088868000898680008B0
:10504000A8680008B8680008C046C046C046C04608
:1050500070B5FCF7FDFFFA208000FDF709F8124C4F
:10506000124E0025201CFBF7A3FFFBF7C1FF201CFD
:10507000FBF79EFFFBF7BCFF201CFBF799FFFBF73C
:10508000B7FF201CFBF794FFFBF7B2FF3378013525
:10509000002BE7D00648FCF7A3FEA800FCF750FE63
:1050A0000448FCF7B5FE70BDDC1000200D10002098
:1050B000C8680008D8680008C046C046C046C04658
:1050C00008B50248FBF704FF08BDC046DC1000200D
:1050D00070B5084CA269537F5A0708D4064E0425C0
:1050E000301CFBF71DFEA069417F0D42F8D0002067
:1050F00070BDC046D009002000110020C046C04647
:1051000070B5FCF7A5FFFA208000FCF7B1FF144C46
:10511000144E0025201CFBF703FE201CFBF730FE7D
:10512000201CFBF7FDFD201CFBF72AFE201CFBF7D3
:10513000F7FD201CFBF724FE201CFBF7F1FD201CD3
:10514000FBF71EFE33780135002BE3D00648FCF751
:1051500047FEA800FCF7F4FD0448FCF759FE70BDBB
:10516000001100200D100020C8680008E868000841
:1051700008B502480121FBF76BFD08BD00110020B6
:1051800008B502480021FBF763FD08BD00110020AF
:10519000F0B5474680B4FCF75BFFFA208000FCF7CF
:1051A00067FF154A154F164E164D0024904672B6ED
:1051B0000121381C321C0023FBF762FA1249321C11
:1051C0000023281CFBF75CFA381CFBF779FA281C33
:1051D000FBF776FA62B641460B780134002BE6D035
:1051E0000A48FCF7FDFD6000FCF7AAFD0848FCF743
:1051F0000FFE04BC9046F0BD0D1000200C110020E5
:10520000514F0008EC10002010270000C86800086B
:10521000F8680008C046C046C046C046C046C04602
:1052200070B5234C82B00023009322491022201C29
:10523000FCF7AEFAFCF70CFFFA208000FCF718FF31
:105240001D4E002572B60021201CFCF7C9FA201C57
:105250000121FCF7C5FA201C0221FCF7C1FA201C31
:105260000321FCF7BDFA62B601214942201CFCF77C
:10527000DFFA01225142201CFCF7DAFA01235942DD
:10528000201CFCF7D5FA0121201C4942FCF7D0FA7A
:10529000307801350028D5D00848FCF7A1FDA800DA
:1052A000FCF74EFD0648FCF7B3FD02B070BDC046EA
:1052B000A8100020CC1000200D100020C8680008A5
:1052C00004690008C046C046C046C046C046C04645
:1052D000F0B54F464646C0B41648174B81691A6868
:1052E0008C6883B0FA259146FCF7B2FEA800013421
:1052F000FCF7BEFE114F124EA04600250024982355
:1053000059004246009548463B1CFBF761FB32784A
:105310000134002AF3D00B48FCF762FD201CFCF797
:105320000FFD0948FCF774FD03B00CBC904699468C
:10533000F0BDC046D0090020305F0008414F000892
:105340000D100020C868000810690008C046C0465B
:10535000F0B54F464646C0B4002385B00393FCF732
:1053600077FE2D482D4A846991462D4EA2689827D4
:105370007F0003AC4D468046391C331C013A009433
:105380002868FBF725FB43469A69264D92682860FA
:105390004846391C331C013A00944068FBF718FB5F
:1053A00041468B6968609A684846391C331C013A4B
:1053B00000948068FBF70CFB424691694B468A6873
:1053C000A860391C013A0094D868331CFBF700FB35
:1053D00042469169E8608A684846391C013A331CA4
:1053E00000940069FBF7F4FAFA272861B800FBF78C
:1053F0002FFBFCF7C5FDFCF7E3FD0B48FCF7F0FCC9
:105400000398FCF79DFC0948FCF702FD05B00CBCB5
:1054100090469946F0BDC046D0090020305F000894
:10542000315400082C100020C86800081C690008CE
:1054300070B50A4E041C0425FBF722FBFBF720FB8A
:10544000FBF71EFBFBF71CFB2368B26904332360E8
:10545000507F0542F0D0002070BDC046D00900202A
:10546000F0B5474680B43D4F3D4BB969186884B0EC
:105470003C4D8A68002603909824984661002B1CB6
:10548000053200960398FBF7A3FA374C424620609A
:10549000B86953688268039398212B1C04320096E4
:1054A00049000398FBF794FA42466060B869936834
:1054B0008268039398212B1C0332009649000398BD
:1054C000FBF786FA4246A060B869D3688268039306
:1054D00098212B1C0232009649000398FBF778FABA
:1054E000BF6942461369BA68E06003930096982644
:1054F00071002B1C01320398FBF76AFAFA25206130
:10550000FCF7A6FDA800FCF7B3FD184F184E0024C9
:10551000381C0021FBF7DCFB307801340028F7D081
:10552000FCF72EFD0021381CFBF7D2FBFCF748FDF1
:105530001048FCF755FC201CFCF702FC0E48FCF759
:105540004FFC61000A195000FCF7FAFB0B48FCF70E
:105550005FFC04B004BC9046F0BDC046D0090020FA
:10556000305F0008D15000082C10002000110020EE
:105570000D100020C8680008286900081C69000890
:10558000F0B54F464646C0B41748184B81691A68B3
:105590008C6883B0FA259146FCF75AFDA800013CBF
:1055A000FCF766FD124F134EA046002500249823F9
:1055B000590042463B1C00954846FBF709FAFBF7A9
:1055C00097FA32780134002AF1D00B48FCF708FC36
:1055D000201CFCF7B5FB0948FCF71AFC03B00CBC17
:1055E00090469946F0BDC046D0090020305F0008C3
:1055F000414F00080D100020C8680008106900081D
:1056000070B5214B214C986982B0826800219825A1
:105610001F4B0132009120686900FBF7D9F91D4A40
:10562000FA261060041CFCF713FDB000FCF720FD07
:10563000194E002572B60021201CFBF7F9F8201C3A
:105640000021FBF7F5F8201C0021FBF7F1F8201CE6
:105650000021FBF7EDF862B633780435002BE9D072
:1056600072B60121201C4942FBF7E2F862B6FCF752
:10567000A7FC0A48FCF7B4FB6800FCF761FB08488C
:10568000FCF7C6FB02B070BDD0090020305F0008F7
:10569000D15800082C1000200D100020C868000808
:1056A0001C690008C046C046C046C046C046C04649
:1056B00070B5051CFCF7CCFCFA208000FCF7D8FC88
:1056C000074E0024281C0121FBF70AFF3378013420
:1056D000002BF7D0281C0021FBF702FF201C70BD17
:1056E0000D100020C046C046C046C046C046C04659
:1056F000F0B54F464646C0B42C4F2D4ABB69904684
:1057000098259A6883B06D0000264046291C013216
:105710000096284B0068FBF75BF9B969264C8A684C
:105720002060264B4046291C023A00964068994664
:10573000FBF74EF9BA694146926860604B46033AFE
:1057400000968868291CFBF743F9BB69A0609A683A
:105750004046291C4B46043A0096C068FBF738F9CE
:10576000BF694246E0601069BA68291C053A4B4699
:105770000096FBF72DF920612068FFF799FF051CC3
:10578000FCF71EFC0E48FCF72BFB281CFCF7D8FA94
:105790000C48FCF725FB6800FCF7D2FA0A48FCF736
:1057A00037FB03B00CBC90469946F0BDD0090020F1
:1057B000305F0008B15800082C100020414F00084D
:1057C000C86800083C6900081C690008C046C0465B
:1057D00010B51349134B8A6982B092681868002487
:1057E00098230132009459000F4BFBF7F1F80F4951
:1057F0000860FFF75DFF041CFCF7E2FB0C48FCF7B8
:10580000EFFA201CFCF79CFA0A48FCF7E9FA600062
:10581000FCF796FA0848FCF7FBFA02B010BDC04648
:10582000D0090020305F0008B15800082C1000207B
:10583000C86800083C6900081C690008C046C046EA
:1058400010B51349134B8A6982B092681868002416
:105850009823013A009459000F4BFBF7B9F80F4910
:105860000860FFF725FF041CFCF7AAFB0C48FCF7B7
:10587000B7FA201CFCF764FA0A48FCF7B1FA60009A
:10588000FCF75EFA0848FCF7C3FA02B010BDC04648
:10589000D0090020305F0008B15800082C1000200B
:1058A000C86800083C6900081C690008C046C0467A
:1058B00010B5FBF735FE446B211CFBF751FE002CA5
:1058C000F7D1002010BDC046C046C046C046C04605
:1058D000064B10B59C6972B60220FAF771FF606A38
:1058E0000028F9D062B6002010BDC046D0090020C3
:1058F00008B500F0A5F8044800F032F900F048F8C7
:1059000000F0BEFA08BDC046906B0008C046C04615
:1059100008B50C30FBF7ACFF08BDC046C046C0461A
:1059200008B501230C305B42FBF7A2FF08BDC0465F
:1059300008B53030FCF74CF808BDC046C046C0463C
:1059400008B5012330305B42FCF742F808BDC04681
:1059500008B50C30FBF76CFF08BDC046C046C0461A
:1059600008B501210C304942FBF762FF08BDC04673
:1059700008B53030FBF7DCFF08BDC046C046C04666
:1059800008B5012230305242FBF7D2FF08BDC046B5
:1059900008B500F01DFA08BDC046C046C046C04666
:1059A00030B5151C0D4A041C0B1C04C0012183B02A
:1059B00060602172201C211C0C3054310094102294
:1059C000FBF7E6FE201C211C3030643100941022CD
:1059D0002B1CFBF785FF03B030BDC046606B000891
:1059E00010B5041C72B600F00BFA0223237262B6E3
:1059F00010BDC046C046C046C046C046C046C046B0
:105A000038B54369041C0D1C002B07D0201C0C303A
:105A1000291CFBF7E5FE00280BDB38BD0430042110
:105A2000FBF776FC201C0C30291CFBF7D9FE002864
:105A3000F3DA201D8021FBF76BFCEEE7C046C04681
:105A40001C4B10B51A6901225042002218611A61DC
:105A5000D968194C19482143D96019490724DA60DB
:105A600048608A600C60D86980214C050443154960
:105A7000DC610C688020400020430860196AC02463
:105A8000A000084080218C00A04203D08020410269
:105A900019621A62074B80221C6A1202144207D153
:105AA000186A80218C0004431C62186A02431A623F
:105AB00010BDC04600100240FFFFBFFF7FBB0000CB
:105AC00010E000E000700040C046C046C046C0463E
:105AD00020480123026802211343036003681D4A22
