:020000040800F2
:100000000020002015B100081D0500082505000886
:1000100000000000000000000000000000000000E0
:100020000000000000000000000000002D05000896
:100030000000000000000000350500083D05000834
:1000400065B1000865B1000865B1000865B1000838
:1000500065B1000865B1000865B1000865B1000828
:1000600065B1000865B1000865B1000865B1000818
:1000700065B1000865B1000865B1000865B1000808
:1000800065B1000865B100080000000065B1000816
:1000900065B1000865B1000865B1000865B10008E8
:1000A00065B1000865B1000865B1000865B10008D8
:1000B00021AD00080000000065B10008000000004C
:0400C0005FF808F1EC
:0400C4000000000038
:0800C8006800000001000000C7
:1000D00010B5064C2378002B07D10548002802D024
:1000E000044800E000BF0121217010BD8002002003
:1000F00000000000C400000808B5084B002B03D026
:100100000748084900E000BF07480168002903D0FC
:10011000064A002A00D0904708BDC04600000000F3
:10012000C4000008840200207C02002000000000BF
:10013000164B002B00D1144B9D46402292029A1A76
:10014000924600218B460F461348144A121A0BF0B0
:10015000EFF80F4B002B00D098470E4B002B00D030
:1001600098470020002104460D4600200C4900223B
:1001700000230AF0F9FF0BF093F82046294600F01F
:1001800087F80BF04DF8C0460000080000000000A2
:10019000000000000000000080020020F4030020A6
:1001A00041B200081CB800080000002074020020C2
:1001B00080020020F4030020002934D00123002213
:1001C00010B488422CD301242407A14204D28142D6
:1001D00002D209011B01F8E7E400A14204D28142E6
:1001E00002D249005B00F8E7884201D3401A1A4363
:1001F0004C08A04202D3001B5C0822438C08A0429A
:1002000002D3001B9C082243CC08A04202D3001B4F
:10021000DC082243002803D01B0901D00909E3E7C9
:10022000101C10BC7047002801D00020C04307B448
:10023000024802A14018029003BDC0461900000008
:100240000029F0D003B5FFF7B9FF0EBC4243891A6D
:100250001847C0467047C04680B500AFBD4680BD58
:1002600080B500AF002000F089F8084B1B68FA2227
:100270005200101C9847012000F080F8034B1B68C7
:10028000FA225200101C9847BD4680BD1000002085
:1002900080B500AF00F0F8F9FFF7DEFFFFF7E0FFF1
:1002A000FCE7C04680B584B000AF021CFB1D1A708D
:1002B000FB1D1A78164B9200D358181C012104F02C
:1002C0003FFAFB1D1A78134B5200D35A1A1C3B1CE1
:1002D00008331A603B1C083301221A713B1C083397
:1002E00000229A713B1C08330022DA713B1C083350
:1002F00003225A71FB1D1A78074B9200D2583B1CFF
:100300000833101C191C02F027FDBD4604B080BD47
:10031000D8B60008D4B600080400002080B582B02A
:1003200000AF021CFB1D1A70FB1D1A78054B9200D2
:10033000D358FA1D1178044A49008A5A9A61BD4679
:1003400002B080BD04000020D4B6000880B582B0A1
:1003500000AF021CFB1D1A70FB1D1A78054B9200A2
:10036000D358FA1D1178044A49008A5A1A85BD46A5
:1003700002B080BD04000020D4B6000880B582B071
:1003800000AF021CFB1D1A70FB1D1A780A4B92006D
:10039000D358FA1D1178084A89008A58928A91B276
:1003A000FA1D1078054A4000825A4A4092B29A8259
:1003B000BD4602B080BDC04604000020D4B600088F
:1003C00080B588B000AF0A1CFB1D011C1970BB1D55
:1003D0001A70FB1D1A783B4B9200D358181C012150
:1003E00004F0AEF90120012104F0C8F93B1C1833D8
:1003F00000221A713B1C18330022DA71FB1D1A7897
:10040000314B5200D35A1A1C3B1C18331A60FB1D87
:100410001A782E4B9200D2583B1C1833101C191C12
:1004200002F09AFCBB1D1B78012B48D1FB1D1A78EA
:10043000274B5200D35ADAB2FB1D1978254B4900DD
:10044000CB5ADBB2101C191C06F0E0F9FB1D1A7820
:10045000214B5200D35A1A1C3B1C10331A603B1C10
:10046000103300221A71FB1D1B78002B04D03B1C9B
:10047000103308225A7103E03B1C10330C225A71CE
:100480003B1C103301229A713B1C1033181C01F0E5
:100490008FFDFB1D1A78114B5200D35ADAB23B1C68
:1004A0000C331A703B1C0C3303225A703B1C0C3368
:1004B00001229A703B1C0C33181C03F0AFFBBD46A5
:1004C00008B080BDE4B60008E0B600080C000020CB
:1004D000ECB60008F0B60008E8B60008F4B600086C
:1004E00080B582B000AF021CFB1D1A70FB1D1A788C
:1004F000084B9200D258FB1D1978074B4900CB5A84
:10050000101C191C02F0FEFC031C181CBD4602B096
:1005100080BDC0460C000020E0B6000880B500AFEA
:10052000BD4680BD80B500AFFEE7C04680B500AFD8
:10053000BD4680BD80B500AFBD4680BD80B500AF73
:10054000054B1B68002B04D0034B1B685A1E024B43
:100550001A60BD4680BDC0469C020020B0B582B086
:1005600000AF021C3960FB1D1A70FB1D1B787F2B2E
:1005700032D93049FB1D1B781A1C0F231340083B4E
:1005800098082C4AFB1D1B781C1C0F232340083B9A
:100590009B0806339B00D3185B68FA1D1278141C65
:1005A00003222240D200FF24251C95402A1CD2435E
:1005B0001A403B689C01FF231C40FB1D1B781D1C3F
:1005C00003232B40DB00251C9D402B1C1A43831D5D
:1005D0009B00CB185A6029E0174BFA1D127852B2D3
:1005E00092081549F81D007840B28008C03080009C
:1005F0004158F81D0078041C03202040C000FF244F
:10060000251C8540281CC043084039688C01FF2107
:100610000C40F91D09780D1C03212940C900251C37
:100620008D40291C0143C0329200D150BD4602B01A
:10063000B0BDC04600ED00E000E100E080B582B052
:1006400000AF78607A680E4B9A4201D9012312E01C
:100650000C4B7A681202120A013A5A6001235B427B
:10066000181C0321FFF77AFF064B00229A60054B06
:1006700007221A600023181CBD4602B080BDC04688
:10068000FFFFFF0010E000E080B582B000AF002364
:100690007B6000F0EFF800F01BF900F03DF932E06C
:1006A0004F4B1A6880239B02134004D1FA239B000E
:1006B000181C00F055F94A4B1A6880239B0213401E
:1006C00003D1484B181C00F04BF9454B1A688023A6
:1006D0009B02134003D1444B802252009A61404B4D
:1006E0001A6880239B02134003D13E4B181C00F074
:1006F00037F93B4B1A6880239B02134003D13A4BD6
:10070000802252001A85364B1A6880239B021340C0
:10071000C6D0354B802252001A85344B00221A6015
:1007200080235B02181C002103F088FD012003F0E8
:100730009FFD32E02A4B1A6880239B04134004D1AA
:10074000FA239B00181C00F00BF9254B1A68802334
:100750009B04134003D1234B181C00F001F9204BDC
:100760001A6880239B04134003D11F4B8022520040
:100770009A611B4B1A6880239B04134003D1194BC9
:10078000181C00F0EDF8164B1A6880239B041340E8
:1007900003D1154B802252001A85114B1A68802311
:1007A0009B041340C6D0022003F0CCFDC04603F0EA
:1007B000E3FD031C082BFAD180235B05181C0121E3
:1007C00003F0FAFF012003F0CBFA7B68802252008D
:1007D00013437B6009F058F9BD4602B080BDC046A6
:1007E0000010024040420F00000800480020024074
:1007F00080B582B000AF78600C4B181CFFF71EFF6D
:100800000B4B7A681A60C046094B1A687B689A429B
:10081000FAD0084B181CFFF711FFC046044B1B68A9
:10082000002BFBD1BD4602B080BDC046A25D0000DA
:100830009C020020C05D000080B582B000AF7860EF
:100840000B4B7A681A60D220FFF7F8FEC046084BBF
:100850001A687B689A42FAD0F020FFF7EFFEC04694
:10086000034B1B68002BFBD1BD4602B080BDC046C8
:100870009C02002080B582B000AFA0231B03181C8F
:10088000012103F05DFF3B1CC02292001A603B1C5B
:1008900001225A713B1C01221A713B1C00229A71E1
:1008A0000A4A3B1C101C191C02F056FA3B1C012280
:1008B0001A603B1C00221A719023DA053B1C101CA5
:1008C000191C02F049FABD4602B080BD000800487C
:1008D00080B582B000AF80239B02181C012103F079
:1008E0002FFF3B1CC02252011A603B1C01225A718F
:1008F0003B1C01221A713B1C00229A713B1C0022F6
:10090000DA719023DA053B1C101C191C02F024FA42
:10091000BD4602B080BDC04680B582B000AF802326
:10092000DB02181C012103F00BFF3B1C802292010B
:100930001A603B1C01225A713B1C01221A713B1C9C
:1009400000229A713B1C0022DA71044A3B1C101CE5
:10095000191C02F001FABD4602B080BD0004004837
:1009600080B582B000AF7860C0467B685A1E934164
:10097000DBB27A68013A7A60002BF6D1BD4602B04C
:1009800080BDC04680B586B000AF8023DB02181C56
:10099000012103F0D5FE3B1C1033802252011A6066
:1009A0003B1C103300221A713B1C10330022DA71F9
:1009B0001A4A3B1C1033101C191C02F0CDF90120FF
:1009C000012103F0DBFE01200C2105F01FFF3B1C81
:1009D0000833802252011A603B1C083300221A712E
:1009E0003B1C08330C225A713B1C083301229A71BC
:1009F0003B1C0833181C01F0DBFA3B1D07221A7060
:100A00003B1D00225A703B1D01229A703B1D181C91
:100A100003F004F9BD4606B080BDC046000400489E
:100A200080B586B000AF8023DB02181C012103F0E3
:100A300087FE3B1C1033802212011A603B1C1033CE
:100A400000221A713B1C10330022DA711A4A3B1C37
:100A50001033101C191C02F07FF90120012103F052
:100A60008DFE01200B2105F0D1FE3B1C08338022B6
:100A700012011A603B1C083300221A713B1C083318
:100A80000C225A713B1C083301229A713B1C08331B
:100A9000181C01F08DFA3B1D07221A703B1D002225
:100AA0005A703B1D01229A703B1D181C03F0B6F8CA
:100AB000BD4606B080BDC0460004004880B500AF0A
:100AC000FFF760FFBD4680BD80B58CB000AF3B1C1A
:100AD0002E3300221A803B1C2C3300221A808023E4
:100AE0009B02181C012103F02BFE80231B01181C04
:100AF000012103F043FE3B1C2433802252001A6084
:100B00003B1C243302221A713B1C243303225A71EA
:100B10003B1C24330022DA719023DA053B1C24337A
:100B2000101C191C02F018F99023DB05181C082171
:100B3000022202F089FA334B1B68181C3249FFF776
:100B40003BFB031C9AB23B1C2E33013A1A803B1C20
:100B50002E331B885A1E131C9B009B18181C0A213D
:100B6000FFF72AFB031C1A1C3B1C2C331A803B1C6E
:100B7000183300221A803B1C183300225A803B1C79
:100B80002E331A883B1C18335A603B1C1833002242
:100B90001A813B1C183300229A721C4A3B1C1833E2
:100BA000101C191C05F04CFF3B1D70221A803B1DC8
:100BB00001225A803B1D04229A803B1C2C331A8848
:100BC0003B1D9A603B1D02229A813B1D0022DA8167
:100BD0003B1D802252001A823B1D00225A820B4A82
:100BE0003B1D101C191C06F049F9084B181C01216B
:100BF00006F0BCF8054B181C012106F019F9BD469A
:100C00000CB080BD24000020A2440000002C014054
:100C100080B582B000AF78607A68094B9A420BD1F8
:100C200080239B00181C012103F002FE80239B00FF
:100C3000181C002103F0FCFDBD4602B080BDC0467B
:100C40000024014080B584B000AF78603960002393
:100C5000FB607B68DB68FB60FA680F4B1340FB604E
:100C60003B681A683B681B795B031A433B689B68C7
:100C70001A433B68DB681A433B681B691A433B68AD
:100C80005B691343FA681343FB607B68FA68DA60B8
:100C9000BD4604B080BDC04603D2FFFF80B582B020
:100CA00000AF78607B6800221A607B6800221A71AE
:100CB0007B6800229A607B680022DA607B680022F1
:100CC0001A617B6800225A61BD4602B080BDC046F1
:100CD00080B582B000AF78600A1CFB1C1A70FB1C48
:100CE0001B78002B06D07B689B6801221A437B6827
:100CF0009A6005E07B689B6802221A437B689A60D1
:100D0000BD4602B080BDC04680B584B000AFF8607B
:100D1000B960FB1D1A70FB1D1B78002B06D0FB6809
:100D20001A69BB681A43FB681A6106E0FB681B6915
:100D3000BA68D2431A40FB681A61BD4604B080BD50
:100D400080B582B000AF78600A1CFB1C1A70FB1CD7
:100D50001B78002B07D07B68DB68802212021A43C5
:100D60007B68DA6005E07B68DA68034B1A407B68D1
:100D7000DA60BD4602B080BDFF7FFFFF80B582B064
:100D800000AF78600A1CFB1C1A70FB1C1B78002B40
:100D900007D07B68DB688022D2011A437B68DA6067
:100DA00005E07B68DA68034B1A407B68DA60BD4671
:100DB00002B080BDFFBFFFFF80B582B000AF78609A
:100DC0000A1CFB1C1A70FB1C1B78002B07D07B68CD
:100DD000DB68802212041A437B68DA6005E07B68D6
:100DE000DA68034B1A407B68DA60BD4602B080BD0A
:100DF000FFFF7FFF80B582B000AF7860BB1C198019
:100E00003B1C1A803B1C1A88BB1C1B881B041A4302
:100E10007B681A62BD4602B080BDC04680B584B012
:100E200000AF786039600023FB607B68DB68FB60A3
:100E3000FA68064B1340FB60FA683B681343FB609B
:100E40007B68FA68DA60BD4604B080BDFFFFFF83AF
:100E500080B582B000AF78600A1CFB1C1A70FB1CC6
:100E60001B78002B07D07B68DB688022D2031A43F3
:100E70007B68DA6005E07B68DA68034B1A407B68C0
:100E8000DA60BD4602B080BDFFFFBFFF80B582B013
:100E900000AF021CFB1D1A70FB1D1B78002B07D036
:100EA000084B084A1268802109040A431A6005E0C9
:100EB000044B044A1168044A0A401A60BD4602B055
:100EC00080BDC04608270140FFFF7FFF80B582B08C
:100ED00000AF021CFB1D1A70FB1D1B78002B07D0F6
:100EE000084B084A12688021C9030A431A6005E0CA
:100EF000044B044A1168044A0A401A60BD4602B015
:100F000080BDC04608270140FFFFBFFF80B582B00B
:100F100000AF021CFB1D1A70FB1D1B78002B07D0B5
:100F2000084B084A1268802149040A431A6005E008
:100F3000044B044A1168044A0A401A60BD4602B0D4
:100F400080BDC04608270140FFFFFFFE80B586B088
:100F500000AFF860B9607A6000237B61FB689A6A31
:100F6000BB681A43FB689A627B69072293437B61E3
:100F70007A697B6813437B61FB687A695A61BD4675
:100F800006B080BD80B582B000AF78600A1CFB1C43
:100F90001A70FB1C1B78002B07D07B68DB68802253
:100FA00092011A437B68DA6005E07B68DA68034BDC
:100FB0001A407B68DA60BD4602B080BDFFDFFFFFEC
:100FC00080B582B000AF78600A1CFB1C1A70FB1C55
:100FD0001B78002B07D07B68DB68802252021A4303
:100FE0007B68DA6005E07B68DA68034B1A407B684F
:100FF000DA60BD4602B080BDFFFFFEFF80B582B063
:1010000000AF78600A1CFB1C1A70FB1C1B78002BBD
:1010100007D07B68DB68802252011A437B68DA6064
:1010200005E07B68DA68034B1A407B68DA60BD46EE
:1010300002B080BDFFEFFFFF80B586B000AF7860E3
:1010400000237B6100233B610023FB607B689B687E
:10105000802212061A437B689A607B689B68DB0FCC
:10106000DB07FB603B6901333B613A69F0231B02FC
:101070009A4202D0FB68002BEFD17B689B68002B63
:1010800003DB7B681B6C7B6101E000237B617B6978
:10109000181CBD4606B080BD80B582B000AF786038
:1010A0007B689B6810221A437B689A60BD4602B039
:1010B00080BDC04680B582B000AF78607B689B6819
:1010C00004221A437B689A60BD4602B080BDC046C8
:1010D00080B582B000AF78607B681B6C9BB2181C37
:1010E000BD4602B080BDC04680B582B000AF78601A
:1010F0000A1CFB1C1A70FB1C1B78002B06D07B689B
:10110000DB6801221A437B68DA6007E07B68DB68F2
:101110000122191C91430A1C7B68DA60BD4602B0AB
:1011200080BDC04680B582B000AF786039607B6812
:10113000DB680222191C91430A1C7B68DA607B6819
:10114000DA683B681A437B68DA60BD4602B080BD4E
:1011500080B584B000AFF860B960FB1D1A70FB1D4C
:101160001B78002B06D0FB685A68BB681A43FB68E3
:101170005A6006E0FB685B68BA68D2431A40FB68B5
:101180005A60BD4604B080BD80B584B000AF7860C1
:1011900039603B1C0F3300221A700023BB603A6891
:1011A00080235B04134005D07B689A680D4B134085
:1011B000BB6002E07B681B68BB60BB683A68134099
:1011C00004D03B1C0F3301221A7003E03B1C0F3389
:1011D00000221A703B1C0F331B78181CBD4604B04C
:1011E00080BDC046FFFFFFFE80B582B000AF7860D3
:1011F00039607B683A681A60BD4602B080BDC0465F
:1012000080B584B000AF786039603B1C0F3300229A
:101210001A700023BB607B685B683A681340BB6050
:101220007B681B683A68134007D0BB68002B04D06A
:101230003B1C0F3301221A7003E03B1C0F330022CA
:101240001A703B1C0F331B78181CBD4604B080BDC0
:1012500080B582B000AF786039607B683A681A6008
:10126000BD4602B080BDC04680B500AF8023DB051F
:10127000181C012103F0FAFA8023DB05181C002159
:1012800003F0F4FABD4680BD80B584B000AF78604D
:101290000023FB60114B5B68FB60FA68104B134046
:1012A000FB607B681A687B685B681A437B689B6895
:1012B0001A437B68DB681A437B681B691A437B68A7
:1012C0005B691A437B689B691343FA681343FB60AD
:1012D000024BFA685A60BD4604B080BD00780040F9
:1012E00000FE007080B582B000AF78607B6800229D
:1012F0001A607B6800225A607B6800229A607B68D3
:101300000022DA607B6800221A617B6800225A6141
:101310007B6800229A61BD4602B080BD80B582B074
:1013200000AF021CFB1D1A70FB1D1B78002B06D0A2
:10133000074B074A126801210A431A6005E0044B73
:10134000034A126801218A431A60BD4602B080BD7B
:101350000078004080B582B000AF021CFB1D1A70FF
:10136000FB1D1B78002B07D0084B084A52688021D0
:1013700009060A435A6005E0044B044A52685200C9
:1013800052085A60BD4602B080BDC0460078004099
:1013900080B584B000AF021CFB1D1A700023FB60F7
:1013A000FB1D1B7810330122111C99400B1CFB60A4
:1013B000044B044A5168FA680A435A60BD4604B0B7
:1013C00080BDC0460078004080B500AF024B0022CF
:1013D0005A60BD4680BDC0460078004080B582B0EE
:1013E00000AF021CFB1D1A70034BFA1D12789A60A5
:1013F000BD4602B080BDC0460078004080B500AF59
:10140000024BDB68DBB2181CBD4680BD0078004093
:1014100080B500AF034B034A126802210A431A60E9
:10142000BD4680BD0078004080B500AF034B034A45
:10143000126804210A431A60BD4680BD007800404E
:1014400080B582B000AF0A1CBB1D011C19807B1D3A
:101450001A707B1D1B78002B07D00B4B0A4A516971
:10146000BA1D12880A435A610BE0BB1DBA1D1288CF
:10147000D2431A80044B044A5269B91D09880A40B4
:101480005A61BD4602B080BD0078004080B584B08E
:1014900000AF021CBB1D1A803B1C0F3300221A70C8
:1014A0000A4B1B69BA1D1288134004D03B1C0F3332
:1014B00001221A7003E03B1C0F3300221A703B1C00
:1014C0000F331B78181CBD4604B080BD0078004067
:1014D00080B582B000AF7860024B7A681A61BD4671
:1014E00002B080BD0078004080B584B000AF021C1F
:1014F000BB1D1A803B1C0F3300221A700023BB60F7
:101500000F4B5B69BA1D12881340BB600C4B1B6903
:10151000BA1D1288134007D0BB68002B04D03B1CB7
:101520000F3301221A7003E03B1C0F3300221A70A4
:101530003B1C0F331B78181CBD4604B080BDC04651
:101540000078004080B582B000AF021CBB1D1A803D
:10155000034BBA1D12881A61BD4602B080BDC04659
:101560000078004080B500AF024B00221A60BD46F3
:1015700080BDC0461C00014080B584B000AF7860DB
:1015800039600023FB60134B1B68FB607B68124AC9
:10159000111C99400B1CDA43FB681340FB603B684D
:1015A0001A683B685B681A433B689B681A433B6850
:1015B000DB681A433B681B691A437B68111C99401E
:1015C0000B1CFA681343FB60024BFA681A60BD46B5
:1015D00004B080BD1C000140FE3F000080B582B019
:1015E00000AF78607B6800221A607B6800225A6036
:1015F0007B6800229A607B680022DA607B680C229C
:101600001A61BD4602B080BD90B583B000AF78606E
:101610000A1CFB1C1A70FB1C1B78002B0AD00C4BFD
:101620000B4A11687A680120041C9440221C0A436A
:101630001A600AE0064B064A126879680120041C09
:101640008C40211CC9430A401A60BD4603B090BDBE
:101650001C00014080B582B000AF021CFB1D1A7057
:10166000FB1D1B78002B06D0074B074A126802218E
:101670000A431A6005E0044B034A126802218A43B8
:101680001A60BD4602B080BD1C00014080B584B028
:1016900000AF78600023FB600A4B1B687A688021EA
:1016A000C901081C9040021C134003D08023DB01B9
:1016B000FB6001E00023FB60FB68181CBD4604B022
:1016C00080BDC0461C00014080B582B000AF021C46
:1016D000FB1D1A70FB1D1B78002B07D0084B084A16
:1016E0001268802109040A431A6005E0044B044A89
:1016F0001168044A0A401A60BD4602B080BDC04667
:101700001C000140FFFF7FFF90B583B000AF786001
:10171000064B064A11687A6880200002041C944037
:10172000221C0A431A60BD4603B090BD1C00014054
:1017300080B500AF074B012252421A60054B0022D0
:101740001A71044B012252421A61024B01229A6023
:10175000BD4680BD0030024080B500AF024B012283
:101760009A60BD4680BDC0460030024080B584B05E
:1017700000AF78600023FB60084B9B68FB60FB6850
:1017800060229343FB60FA687B681343FB60034B62
:10179000FA689A60BD4604B080BDC0460030024081
:1017A00080B582B000AF021CFB1D1A70FB1D1B78B8
:1017B000002B06D0074B074A926880210A439A60A3
:1017C00005E0044B034A926880218A439A60BD4633
:1017D00002B080BD0030024080B582B000AF7860BA
:1017E000024B7A681A61BD4602B080BD00300240EB
:1017F00080B582B000AF7860044B7A681A60034B02
:101800001B68181CBD4602B080BDC04600300240B7
:1018100080B584B000AF786039600023FB6000239E
:10182000FB6009E0094BFA68920079688A1812682F
:101830001A60FB680133FB60FA683B689A42F1D397
:10184000024B1B68181CBD4604B080BD003002402E
:1018500080B500AF024B1B68181CBD4680BDC0465A
:101860000030024080B582B000AF021CFB1D1A7030
:10187000034BFA1D12781A71BD4602B080BDC046F6
:101880000030024080B500AF024B1B79DBB2181C60
:10189000BD4680BD0030024080B500AF80239B056F
:1018A000181C012102F0E2FF80239B05181C002177
:1018B00002F0DCFFBD4680BD80B584B000AF78602B
:1018C00039600023FB600023BB60104B1B68FB608A
:1018D0007B683E22111C99400B1CDA43FB681340C5
:1018E000FB603B681A683B685B681343BB607B68BE
:1018F000BA68111C99400B1CFA681343FB60034B38
:10190000FA681A60BD4604B080BDC046007400404D
:1019100080B582B000AF78607B6800221A607B6877
:1019200000225A60BD4602B080BDC04690B583B06B
:1019300000AF78600A1CFB1C1A70FB1C1B78002B84
:101940000AD00C4B0B4A11687A680120041C9440A1
:10195000221C0A431A600AE0064B064A126879689C
:101960000120041C8C40211CC9430A401A60BD465A
:1019700003B090BD0074004090B583B000AF7860B4
:101980000A1CFB1C1A70FB1C1B78002B0BD00D4B88
:101990000C4A51687A6812090120041C9440221CE8
:1019A0000A435A600BE0074B064A526879680909F6
:1019B0000120041C8C40211CC9430A405A60BD46CA
:1019C00003B090BD0074004080B584B000AF786073
:1019D0000A1CBB1C1A800023FB60074BFB60FA68E3
:1019E0007B68D3180833FB60FB68BA1C12881A6046
:1019F000BD4604B080BDC0460074004080B584B0D0
:101A000000AF78600023FB60074BFB607B689A089F
:101A1000FB68D3182C33FB60FB681B689BB2181C57
:101A2000BD4604B080BDC0460074004090B583B090
:101A300000AF78600A1CFB1C1A70FB1C1B78002B83
:101A40000BD00D4B0C4A11687A6880204001041CB1
:101A50009440221C0A431A600BE0074B064A1268A6
:101A6000796880204001041C8C40211CC9430A4035
:101A70001A60BD4603B090BD0074004090B585B0BB
:101A800000AFF860B960FB1D1A70FB1D1B78002BBE
:101A90000AD00C4B0B4A1168FA68B868041C9440D1
:101AA000221C0A431A600AE0064B064A1268F968CB
:101AB000B868041C8C40211CC9430A401A60BD460A
:101AC00005B090BD0074004080B584B000AF786070
:101AD00039603B1C0F3300221A700C4B5B6B7A6829
:101AE0003968081C9040021C134004D03B1C0F3383
:101AF00001221A7003E03B1C0F3300221A703B1CBA
:101B00000F331B78181CBD4604B080BD0074004024
:101B100080B582B000AF78603960054B7A6839686B
:101B2000081C9040021C5A63BD4602B080BDC046EE
:101B30000074004080B584B000AF786039603B1C11
:101B40000F3300221A700023BB60124B1B687A68A7
:101B50003968081C9040021C1340BB600D4B5B6B46
:101B60007A683968081C9040021C134007D0BB6893
:101B7000002B04D03B1C0F3301221A7003E03B1CE6
:101B80000F3300221A703B1C0F331B78181CBD4604
:101B900004B080BD0074004080B582B000AF7860B2
:101BA0003960054B7A683968081C9040021C5A63FA
:101BB000BD4602B080BDC0460074004080B500AF95
:101BC000024B1B681B0C181CBD4680BD0058014011
:101BD00080B500AF034B1B681B051B0D181CBD46D1
:101BE00080BDC0460058014080B582B000AF78602B
:101BF0000A1CFB1C1A70FB1C1B78002B06D0084B20
:101C0000074A51687A680A435A6006E0044B044A5E
:101C100052687968C9430A405A60BD4602B080BD27
:101C20000058014080B582B000AF78600A1CFB1CF0
:101C30001A70FB1C1B78002B06D0084B074A9168D2
:101C40007A680A439A6006E0044B044A926879680D
:101C5000C9430A409A60BD4602B080BD00580140A9
:101C600080B582B000AF78600A1CFB1C1A70FB1CA8
:101C70001B78002B06D0084B074AD1687A680A43C4
:101C8000DA6006E0044B044AD2687968C9430A4026
:101C9000DA60BD4602B080BD0058014080B582B018
:101CA00000AF78607B681A68254B1A407B681A6021
:101CB0007B6800221A607B6800225A607B680022E1
:101CC0009A607B680022DA607A681E4B9A4206D1DD
:101CD0001D4B1D4A52680F210A435A602DE07A6855
:101CE0001A4B9A4206D1184B174A5268F0210A4300
:101CF0005A6022E07A68164B9A4207D1124B124A78
:101D00005268F02109010A435A6016E07A68114BC3
:101D10009A4207D10C4B0C4A5268F02109020A433F
:101D20005A600AE07A680C4B9A4206D1064B064A82
:101D30005268F02109030A435A60BD4602B080BDD3
:101D4000FEFF000008000240000002401C000240AC
:101D500030000240440002405800024080B584B088
:101D600000AF786039600023FB607B681B68FB6014
:101D7000FA68174B1340FB603B689A683B681B6A24
:101D80001A433B681B691A433B685B691A433B680B
:101D90009B691A433B68DB691A433B685B6A1A43D9
:101DA0003B689B6A1343FA681343FB607B68FA68DD
:101DB0001A603B68DA687B685A603B681A687B681F
:101DC0009A603B685A687B68DA60BD4604B080BDA3
:101DD0000F80FFFF80B582B000AF78607B68002283
:101DE0001A607B6800225A607B6800229A607B68D8
:101DF0000022DA607B6800221A617B6800225A6147
:101E00007B6800229A617B680022DA617B6800228D
:101E10001A627B6800225A627B6800229A62BD4681
:101E200002B080BD80B582B000AF78600A1CFB1C98
:101E30001A70FB1C1B78002B06D07B681B680122E4
:101E40001A437B681A6005E07B681A68034B1A40E6
:101E50007B681A60BD4602B080BDC046FEFF000030
:101E600080B582B000AF78600A1CBB1C1A80BB1C16
:101E70001A887B685A60BD4602B080BD80B582B0CA
:101E800000AF78607B685B689BB2181CBD4602B0EF
:101E900080BDC04680B584B000AFF860B960FB1D5E
:101EA0001A70FB1D1B78002B06D0FB681A68BB68F4
:101EB0001A43FB681A6006E0FB681B68BA68D243E5
:101EC0001A40FB681A60BD4604B080BD80B584B07E
:101ED00000AF78603B1C0F3300221A700A4B1B685E
:101EE0007A68134004D03B1C0F3301221A7003E0C0
:101EF0003B1C0F3300221A703B1C0F331B78181C3D
:101F0000BD4604B080BDC0460000024080B582B02E
:101F100000AF7860024B7A685A60BD4602B080BD5F
:101F20000000024080B584B000AF78603B1C0F33E6
:101F300000221A700A4B1B687A68134004D03B1CBD
:101F40000F3301221A7003E03B1C0F3300221A707A
:101F50003B1C0F331B78181CBD4604B080BDC04627
:101F60000000024080B582B000AF7860024B7A6812
:101F70005A60BD4602B080BD0000024080B500AF8F
:101F8000084B094A1A60074B00225A60054B002291
:101F90009A60044B0022DA60024B044A5A61BD4643
:101FA00080BDC046000401400000940FFFFF6B009D
:101FB00080B584B000AF78600023FB60314BFB60DC
:101FC0007B689B79002B4DD02E4B2E4A11687A6886
:101FD0001268D2430A401A602A4B2A4A51687A682A
:101FE0001268D2430A405A607B681B79FA68D3189A
:101FF000FB60FB68FA6811687A6812680A431A6025
:10200000204B204A91687A681268D2430A409A604D
:102010001C4B1C4AD1687A681268D2430A40DA60C5
:102020007B685B79102B0ED1164B164A91687A6843
:1020300012680A439A60134B124AD1687A68126890
:102040000A43DA601BE00F4BFB607B685B79FA6840
:10205000D318FB60FB68FA6811687A6812680A4353
:102060001A600CE07B681B79FA68D318FB60FB6888
:10207000FA6811687A681268D2430A401A60BD464D
:1020800004B080BD0004014080B582B000AF78602C
:102090007B6800221A607B6800221A717B680C2220
:1020A0005A717B6800229A71BD4602B080BDC0465D
:1020B00080B582B000AF7860044B044A11697A6839
:1020C0000A431A61BD4602B080BDC046000401400B
:1020D00080B584B000AF78603B1C0F3300221A70CB
:1020E0000A4B5B697A68134004D03B1C0F33012212
:1020F0001A7003E03B1C0F3300221A703B1C0F3395
:102100001B78181CBD4604B080BDC04600040140C9
:1021100080B582B000AF7860024B7A685A61BD46E4
:1021200002B080BD0004014080B584B000AF78608B
:102130003B1C0F3300221A700023BB600E4B1B6840
:102140007A681340BB600C4B5B697A68134007D018
:10215000BB68002B04D03B1C0F3301221A7003E034
:102160003B1C0F3300221A703B1C0F331B78181CCA
:10217000BD4604B080BDC0460004014080B582B0B9
:1021800000AF7860024B7A685A61BD4602B080BDEC
:102190000004014080B584B000AF78600023FB608C
:1021A000084B1B68FB60FB6801229343FB60FA68E5
:1021B0007B681343FB60034BFA681A60BD4604B0AA
:1021C00080BDC0460020024080B582B000AF021C36
:1021D000FB1D1A70FB1D1B78002B06D0074B074A0E
:1021E000126810210A431A6005E0044B034A126882
:1021F00010218A431A60BD4602B080BD0020024013
:1022000080B582B000AFFB1D00221A70084B1A681F
:102210002023134003D0FB1D01221A7002E0FB1D96
:1022200000221A70FB1D1B78181CBD4602B080BD31
:102230000020024080B500AF064B1A69802313408E
:1022400005D0044B044A5A60024B044A5A60BD460A
:1022500080BDC0460020024023016745AB89EFCD19
:1022600080B500AF034B034A126980210A431A610B
:10227000BD4680BD0020024090B585B000AF7860BB
:102280003B1C0F3304221A703C1C0F34B0231B0379
:10229000181C00F0CFFC031C23703B1C0F331B7871
:1022A000042B1DD1124B124A126902210A431A61F2
:1022B0000F4B7A685A610E4B0D4A126940210A434E
:1022C0001A613C1C0F34B0231B03181C00F0B2FC35
:1022D000031C2370064B064A126902218A431A61C5
:1022E0003B1C0F331B78181CBD4605B090BDC04683
:1022F0000020024090B583B000AFFB1D04221A708D
:10230000FC1DB0231B03181C00F094FC031C23705D
:10231000FB1D1B78042B19D10F4B0F4A12690421A6
:102320000A431A610C4B0C4A126940210A431A6194
:10233000FC1DB0231B03181C00F07CFC031C237045
:10234000054B054A126904218A431A61FB1D1B785B
:10235000181CBD4603B090BD0020024090B585B06A
:1023600000AF786039603B1C0F3304221A700023E1
:10237000BB603C1C0F34B0231B03181C00F05AFC3C
:10238000031C23703B1C0F331B78042B35D11E4BD1
:102390001D4A126901210A431A617B683A6892B2A8
:1023A0001A803C1C0F34B0231B03181C00F042FCA5
:1023B000031C23703B1C0F331B78042B17D17B6845
:1023C0000233BB60BB683A68120C92B21A803C1CA4
:1023D0000F34B0231B03181C00F02CFC031C2370CB
:1023E000094B094A126901218A431A6105E0064B2B
:1023F000054A126901218A431A613B1C0F331B787D
:10240000181CBD4605B090BD0020024090B585B0B7
:1024100000AF78600A1CBB1C1A803B1C0F330422DF
:102420001A703C1C0F34B0231B03181C00F002FC74
:10243000031C23703B1C0F331B78042B18D1104B4B
:102440000F4A126901210A431A617B68BA1C12887B
:102450001A803C1C0F34B0231B03181C00F0EAFB4D
:10246000031C2370064B064A126901218A431A6134
:102470003B1C0F331B78181CBD4605B090BDC046F1
:102480000020024080B500AF064B1A6980239B00F4
:10249000134005D1034B044A9A60024B034A9A60E9
:1024A000BD4680BD0020024023016745AB89EFCDCA
:1024B00080B500AF034B034A1169034A0A401A6111
:1024C000BD4680BD00200240FFFDFFFF80B500AF8C
:1024D000044B044A1269802189010A431A61BD46EE
:1024E00080BDC0460020024090B583B000AFBB1D48
:1024F000AA221A807B1D04221A7000F009FB031C1B
:10250000002B02D0BB1D00221A807C1DB0231B03B0
:10251000181C00F08FFB031C23707B1D1B78042B01
:1025200044D1254B244A126920210A431A61224BC7
:10253000214A126940210A431A617C1DB0231B0302
:10254000181C00F077FB031C23707B1D1B78042BE9
:1025500022D1194B184A126920218A431A61164B5D
:10256000154A126910210A431A61144BBA1D1288C8
:102570001A807C1DB0231B03181C00F05BFB031C9E
:1025800023707B1D1B78052B10D00B4B0A4A126958
:1025900010218A431A6109E07B1D1B78052B05D0A9
:1025A000054B054A126910218A431A617B1D1B786D
:1025B000181CBD4603B090BD0020024000F8FF1F6C
:1025C00090B585B000AF78603B1C0C3301225242BD
:1025D0001A803B1C0A33012252421A803B1C0F33E3
:1025E00004221A707B68DB437B607B6899B23B1CDA
:1025F0000C33FF220A401A807A68FF231B02134023
:102600001A0A3B1C0A331A803C1C0F34B0231B03EC
:10261000181C00F00FFB031C23703B1C0F331B78AE
:10262000042B3BD1214B214A126910210A431A6124
:102630003B1C0C331B88FF2B0DD01D4B3A1C0C325E
:1026400012881A813C1C0F34B0231B03181C00F0A5
:10265000F1FA031C23703B1C0F331B78042B12D19F
:102660003B1C0A331B88FF2B0DD0114B3A1C0A323E
:1026700012885A813C1C0F34B0231B03181C00F035
:10268000D9FA031C23703B1C0F331B78052B05D094
:10269000064B064A126910218A431A613B1C0F330C
:1026A0001B78181CBD4605B090BDC04600200240F6
:1026B00000F8FF1F90B585B000AF021CFB1D1A701B
:1026C0003B1C0F3304221A703C1C0F34B0231B0335
:1026D000181C00F0AFFA031C23703B1C0F331B784F
:1026E000042B4AD1284B284A126920210A431A6137
:1026F000254B254A126940210A431A613C1C0F34BC
:10270000B0231B03181C00F095FA031C23703B1C1C
:102710000F331B78042B25D11B4B1B4A1269202138
:102720008A431A61184B184A126910210A431A6128
:10273000164BFA1D127892B21A803C1C0F34B0234B
:102740001B03181C00F076FA031C23703B1C0F338C
:102750001B78052B11D00C4B0B4A126910218A43B0
:102760001A610AE03B1C0F331B78052B05D0064B82
:10277000054A126920218A431A613B1C0F331B78DA
:10278000181CBD4605B090BD0020024000F8FF1F98
:1027900090B585B000AFFB1D1870BB1D19707B1D77
:1027A0001A703B1C0F3304221A703C1C0F34B023E8
:1027B0001B03181C00F03EFA031C23703B1C0F3354
:1027C0001B78042B29D1184B174A126910210A4390
:1027D0001A61164BF91DBA1D097812780A43D1B255
:1027E0007A1D12780A43D2B2082149420A43D2B272
:1027F0005A803C1C0F34B0231B03181C00F01AFA3B
:10280000031C23703B1C0F331B78052B05D0064B94
:10281000054A126910218A431A613B1C0F331B7849
:10282000181CBD4605B090BD0020024000F8FF1FF7
:1028300090B585B000AF021CFB1D1A703B1C0F3316
:1028400004221A703C1C0F34B0231B03181C00F028
:10285000F1F9031C23703B1C0F331B78042B21D18F
:10286000144B144A126910210A431A61124BFA1DC3
:102870001278112149420A43D2B25A803C1C0F34CB
:10288000B0231B03181C00F0D5F9031C23703B1C5C
:102890000F331B78052B05D0064B064A1269102111
:1028A0008A431A613B1C0F331B78181CBD4605B0C8
:1028B00090BDC0460020024000F8FF1F90B585B0D3
:1028C00000AF021CFB1D1A703B1C0F3304221A7050
:1028D0003C1C0F34B0231B03181C00F0ABF9031C85
:1028E00023703B1C0F331B78042B21D1144B144A4B
:1028F000126910210A431A61124BFA1D1278212124
:1029000049420A43D2B25A803C1C0F34B0231B0305
:10291000181C00F08FF9031C23703B1C0F331B782D
:10292000052B05D0064B064A126910218A431A610D
:102930003B1C0F331B78181CBD4605B090BDC0462C
:102940000020024000F8FF1F90B585B000AF021CC8
:10295000FB1D1A703B1C0F3304221A703C1C0F34F1
:10296000B0231B03181C00F065F9031C23703B1CEB
:102970000F331B78042B21D1144B144A12691021F8
:102980000A431A61124BFA1D1278412149420A4347
:10299000D2B25A803C1C0F34B0231B03181C00F029
:1029A00049F9031C23703B1C0F331B78052B05D002
:1029B000064B064A126910218A431A613B1C0F33E9
:1029C0001B78181CBD4605B090BDC04600200240D3
:1029D00000F8FF1F90B585B000AF021CFB1D1A70F8
:1029E0003B1C0F3304221A703C1C0F34B0231B0312
:1029F000181C00F01FF9031C23703B1C0F331B78BD
:102A0000042B21D1144B144A126910210A431A6174
:102A1000124BFA1D1278782149420A43D2B25A80E9
:102A20003C1C0F34B0231B03181C00F003F9031CDB
:102A300023703B1C0F331B78052B05D0064B064A31
:102A4000126910218A431A613B1C0F331B78181C32
:102A5000BD4605B090BDC0460020024000F8FF1FF3
:102A600090B585B000AF78600A1CFB1C1A703B1C47
:102A70000F3304221A703C1C0F34B0231B03181CA4
:102A800000F0D8F8031C23703B1C0F331B78042B79
:102A90001ED1134B124A126910210A431A617B6836
:102AA000FA1C127892B21A803C1C0F34B0231B031C
:102AB000181C00F0BFF8031C23703B1C0F331B785D
:102AC000052B05D0064B064A126910218A431A616C
:102AD0003B1C0F331B78181CBD4605B090BDC0468B
:102AE0000020024080B500AF034BDB691B0ADBB25C
:102AF000181CBD4680BDC0460020024080B500AF16
:102B0000024B1B6A181CBD4680BDC0460020024017
:102B100080B582B000AFFB1D00221A70094BDB6943
:102B2000DBB21A1C0623134003D0FB1D01221A70CE
:102B300002E0FB1D00221A70FB1D1B78181CBD460D
:102B400002B080BD0020024080B582B000AF786046
:102B50000A1CFB1C1A70FB1C1B78002B06D0084BB0
:102B6000074A11697A680A431A6106E0044B044A6D
:102B700012697968C9430A401A61BD4602B080BD36
:102B80000020024080B584B000AF78603B1C0F335A
:102B900000221A700A4BDB687A68134004D03B1C91
:102BA0000F3301221A7003E03B1C0F3300221A700E
:102BB0003B1C0F331B78181CBD4604B080BDC046BB
:102BC0000020024080B582B000AF7860024B7A6886
:102BD000DA60BD4602B080BD0020024080B582B000
:102BE00000AFFB1D04221A70114BDA680123134059
:102BF00003D0FB1D01221A7014E00D4BDA6810237C
:102C0000134003D0FB1D02221A700BE0084BDA6858
:102C10000423134003D0FB1D03221A7002E0FB1DA6
:102C200004221A70FB1D1B78181CBD4602B080BD23
:102C30000020024090B585B000AF78603B1C0F3398
:102C400004221A703C1C0F34FFF7C8FF031C2370CA
:102C500008E03C1C0F34FFF7C1FF031C23707B68A6
:102C6000013B7B603B1C0F331B78012B02D17B683F
:102C7000002BEED17B68002B03D13B1C0F330522C8
:102C80001A703B1C0F331B78181CBD4605B090BD55
:102C900080B582B000AF78607A689023DB059A42F5
:102CA0000CD180239B02181C012101F0A3FD80237D
:102CB0009B02181C002101F09DFD42E07A68224B26
:102CC0009A420CD18023DB02181C012101F092FDF5
:102CD0008023DB02181C002101F08CFD31E07A68B2
:102CE0001A4B9A420CD180231B03181C012101F0BE
:102CF00081FD80231B03181C002101F07BFD20E0D7
:102D00007A68134B9A420CD180235B03181C012173
:102D100001F070FD80235B03181C002101F06AFDA7
:102D20000FE07A680B4B9A420BD18023DB03181C0F
:102D3000012101F05FFD8023DB03181C002101F05D
:102D400059FDBD4602B080BD00040048000800489F
:102D5000000C00480014004880B586B000AF7860D1
:102D6000396000237B6100233B610023FB6000236B
:102D70007B6185E07B690122101C9840031C3B614C
:102D80003B681B683A691340FB60FA683B699A42EA
:102D900073D13B681B79012B03D03B681B79022B55
:102DA00038D17B689B687A6952000321081C9040E7
:102DB000021CD2431A407B689A607B689A683B6821
:102DC0005B79191C7B695B00081C9840031C1A4343
:102DD0007B689A607B689B889BB27A6992B201217A
:102DE000081C9040021C92B2D24392B213409AB295
:102DF0007B689A807B689B889AB23B689B79191C98
:102E00007B699BB2081C9840031C9BB213439AB287
:102E10007B689A807B681B687A6952000321081CD2
:102E20009040021CD2431A407B681A607B681A6883
:102E30003B681B79191C7B695B00081C9840031CCC
:102E40001A437B681A607B68DB687A6992B2520029
:102E50000321081C9040021CD2431A407B68DA60B0
:102E60007B68DA683B68DB79191C7B695B00081CAE
:102E70009840031C1A437B68DA607B6901337B61ED
:102E80007B690F2B00D875E7BD4606B080BDC046F4
:102E900080B582B000AF78607B68084A1A607B68B2
:102EA00000221A717B6802225A717B6800229A7193
:102EB0007B680022DA71BD4602B080BDFFFF0000D2
:102EC00080B584B000AF78600A1CBB1C1A808023D8
:102ED0005B02FB60BB1C1A88FB681343FB60FA684B
:102EE0007B68DA61BB1C1A887B68DA61FA687B68E8
:102EF000DA617B68DB69FB607B68DB69FB60BD4690
:102F000004B080BD80B584B000AF78600A1CBB1CE3
:102F10001A803B1C0F3300221A707B681B8A9BB2FD
:102F2000BA1C128813409BB2002B04D03B1C0F33F9
:102F300001221A7003E03B1C0F3300221A703B1C65
:102F40000F331B78181CBD4604B080BD80B582B01D
:102F500000AF78607B681B8A9BB2181CBD4602B02C
:102F600080BDC04680B584B000AF78600A1CBB1C31
:102F70001A803B1C0F3300221A707B689B8A9BB21D
:102F8000BA1C128813409BB2002B04D03B1C0F3399
:102F900001221A7003E03B1C0F3300221A703B1C05
:102FA0000F331B78181CBD4604B080BD80B582B0BD
:102FB00000AF78607B689B8A9BB2181CBD4602B04C
:102FC00080BDC04680B582B000AF78600A1CBB1CD3
:102FD0001A80BB1C1A887B689A61BD4602B080BD0E
:102FE00080B582B000AF78600A1CBB1C1A807B6879
:102FF000BA1C12881A85BD4602B080BD80B582B069
:1030000000AF7860BB1C19807B1C1A707B1C1B787E
:10301000002B04D0BB1C1A887B689A6103E07B6894
:10302000BA1C12881A85BD4602B080BD80B582B038
:1030300000AF78600A1CBB1C1A807B68BA1C12881F
:103040009A82BD4602B080BD90B585B000AF786071
:10305000BB1C19807B1C1A700023FB600023BB6023
:103060007B1C1A78BB1C198807230B409B00111C82
:1030700099400B1CFB60BB1C1B88DB089BB21A1C15
:10308000BB1C1B88DB089BB2191C7B6808318900BC
:10309000CB58B91C08880721014089000F20041C67
:1030A0008C40211CC94319407B6808329200D150E2
:1030B000BB1C1B88DB089BB21A1C7B680832920081
:1030C000D258FB681343BB60BB1C1B88DB089BB258
:1030D0001A1C7B6808329200B968D150BD4605B011
:1030E00090BDC04680B582B000AF78607A680F4B63
:1030F0009A420CD180239B03181C012101F0B6FBDE
:1031000080239B03181C002101F0B0FB0BE08023FF
:10311000DB03181C012101F0A9FB8023DB03181C31
:10312000002101F0A3FBBD4602B080BD0054004069
:1031300080B584B000AF786039600023FB607B68A5
:103140001B680122191C91430A1C7B681A607B686A
:103150001B68FB60FA68274B1340FB603B685A68AA
:103160003B689B681B021343FA681343FB607B6850
:10317000FA681A603B681A681F4B1A407B681A612C
:103180007B681B6801221A437B681A600023FB607E
:103190007B68FA689A607B68FA68DA603B689A69CB
:1031A0003B681B691343FB607B68FA689A607B6825
:1031B0009B68802212021A437B689A603B68DB6836
:1031C000FB607B681A68FB681A437B681A607B683F
:1031D0005B68FB60FA68094B1340FB603B685B6906
:1031E000FA681343FB607B68FA685A60BD4604B016
:1031F00080BDC046FFE0CF00FFFFFFF0FF7FFF076D
:1032000080B582B000AF78607B6800221A607B686E
:1032100000225A607B6800229A607B680022DA6094
:103220007B6800221A617B68802212025A617B68E7
:1032300000229A61BD4602B080BDC04680B582B012
:1032400000AF78600A1CFB1C1A70FB1C1B78002B5B
:1032500006D07B681B6801221A437B681A6007E06E
:103260007B681B680122191C91430A1C7B681A6049
:10327000BD4602B080BDC04680B582B000AF786068
:103280000A1CFB1C1A70FB1C1B78002B07D07B68E8
:103290001B68802292011A437B681A6005E07B68F4
:1032A0001A68034B1A407B681A60BD4602B080BDA5
:1032B000FFDFFFFF80B584B000AFF860B960FB1D91
:1032C0001A70FB1D1B78002B06D0FB681A68BB68C0
:1032D0001A43FB681A6006E0FB681B68BA68D243B1
:1032E0001A40FB681A60BD4604B080BD80B582B04C
:1032F00000AF78600A1CFB1C1A70FB1C1B78002BAB
:1033000006D07B681A68074B1A407B681A6006E093
:103310007B681B68802292021A437B681A60BD4654
:1033200002B080BDFFFFFDFF80B582B000AF7860C6
:103330000A1CFB1C1A70FB1C1B78002B07D07B6837
:103340001B688022D2021A437B681A6005E07B6802
:103350001A68034B1A407B681A60BD4602B080BDF4
:10336000FFFFFBFF80B582B000AF78600A1CFB1C3A
:103370001A70FB1C1B78002B07D07B68DB6880224F
:1033800012021A437B68DA6005E07B68DA68034B57
:103390001A407B68DA60BD4602B080BDFF7FFFFF48
:1033A00080B584B000AF7860BB1C19807B1C1A709C
:1033B0000023FB607B68DB68FB60FA680B4B134003
:1033C000FB60BB1C1A88FE231A407B1C1B78190269
:1033D000E023DB000B401343FA681343FB607B6878
:1033E000FA68DA60BD4604B080BDC04601F8FFFF50
:1033F00080B582B000AF78600A1CFB1C1A70FB1C01
:103400001B78002B07D07B681B68802212031A43AD
:103410007B681A6005E07B681A68034B1A407B687A
:103420001A60BD4602B080BDFFFFF7FF80B582B0D5
:1034300000AF78600A1CFB1C1A70FB1C1B78002B69
:1034400007D07B681B68802252021A437B681A608F
:1034500005E07B681A68034B1A407B681A60BD461A
:1034600002B080BDFFFFFEFF80B584B000AF786082
:103470000A1CBB1C1A800023FB607B685B68FB6036
:10348000FB689B0A9B02FB60BB1C1B889B059B0D7A
:10349000FA681343FB607B68FA685A60BD4604B063
:1034A00080BDC04680B582B000AF78600A1CFB1CAE
:1034B0001A70FB1C1B78002B07D07B685B6880228E
:1034C00012011A437B685A6005E07B685A68034B17
:1034D0001A407B685A60BD4602B080BDFFF7FFFF0F
:1034E00080B582B000AF78600A1CFB1C1A70FB1C10
:1034F0001B78002B07D07B685B68802292041A43FC
:103500007B685A6005E07B685A68034B1A407B6809
:103510005A60BD4602B080BDFFFFFFFD80B582B09E
:1035200000AF78600A1CFB1C1A70FB1C1B78002B78
:1035300007D07B685B68802252041A437B685A601C
:1035400005E07B685A68034B1A407B685A60BD46A9
:1035500002B080BDFFFFFFFE80B584B000AF786091
:103560000A1CFB1C1A700023FB607B685B68FB6015
:10357000FA68094B1340FB60FB1C1B781A04FF23FD
:103580001B041340FA681343FB607B68FA685A60B7
:10359000BD4604B080BDC046FFFF00FF80B582B0CD
:1035A00000AF78600A1CBB1C1A80BB1C1B88002B58
:1035B00006D17B685A68074B1A407B685A6006E060
:1035C0007B685B688022D2001A437B685A60BD46E4
:1035D00002B080BDFFFBFFFF80B582B000AF786016
:1035E0000A1CFB1C1A70FB1C1B78002B07D07B6885
:1035F0005B68802292011A437B685A6005E07B6811
:103600005A68034B1A407B685A60BD4602B080BDC1
:10361000FFDFFFFF80B582B000AF78600A1CFB1CA3
:103620001A70FB1C1B78002B07D07B685B6880221C
:10363000D2011A437B685A6005E07B685A68034BE5
:103640001A407B685A60BD4602B080BDFFBFFFFFD5
:1036500080B582B000AF78600A1CFB1C1A70FB1C9E
:103660001B78002B07D07B685B68802252011A43CD
:103670007B685A6005E07B685A68034B1A407B6898
:103680005A60BD4602B080BDFFEFFFFF80B582B03B
:1036900000AF78600A1CFB1C1A70FB1C1B78002B07
:1036A00006D07B685A68074B1A407B685A6006E070
:1036B0007B685B68802212021A437B685A60BD46B1
:1036C00002B080BDFF7FFFFF80B582B000AF7860A1
:1036D0007B689A69FE231B0413401B0CDBB2181C89
:1036E000BD4602B080BDC04680B584B000AF7860F2
:1036F0000023BB603B1C0E3300221A807B689A6952
:1037000080235B021340BB60BB68002B04D13B1CD1
:103710000E3300221A8004E03B1C0E338022D200BC
:103720001A803B1C0E331B88181CBD4604B080BD9C
:1037300080B586B000AFF8607B603B1C0A3319800F
:103740003B1C09331A7000237B61FB685B687B615B
:103750007A690E4B13407B613B1C0A331B889B0527
:103760009A0D3B1C09331B781904FF231B040B40E3
:103770001A437B681A433B6A13437A6913437B619C
:10378000FB687A695A60BD4606B080BD009800FCAF
:1037900080B582B000AF78600A1CFB1C1A70FB1C5D
:1037A0001B78002B07D07B681B688022D2031A434A
:1037B0007B681A6005E07B681A68034B1A407B68D7
:1037C0001A60BD4602B080BDFFFFBFFF80B582B06A
:1037D00000AF78600A1CFB1C1A70FB1C1B78002BC6
:1037E00007D07B685B69802212021A437B685A61AA
:1037F00005E07B685A69034B1A407B685A61BD46F5
:1038000002B080BDFF7FFFFF80B582B000AF78605F
:103810000A1CFB1C1A70FB1C1B78002B07D07B6852
:103820005B69802212061A437B685A6105E07B6857
:103830005B695B005A087B685A61BD4602B080BD77
:1038400080B582B000AF78600A1CFB1C1A70FB1CAC
:103850001B78002B07D07B685B69802252011A43DA
:103860007B685A6105E07B685A69034B1A407B68A4
:103870005A61BD4602B080BDFFEFFFFF80B584B046
:1038800000AF78600A1CBB1C1A800023FB607B68B9
:103890005B69FB60FB681B0B1B03FB60BB1C1B888D
:1038A0001B051B0DFA681343FB607B68FA685A61BD
:1038B000BD4604B080BDC04680B584B000AF78601E
:1038C0000A1CBB1C1A800023FB607B685B69FB60E1
:1038D000FA68084B1340FB60BB1C1B881A04064B9C
:1038E0001340FA681343FB607B68FA685A61BD466F
:1038F00004B080BDFFFF00F00000FF0F80B582B074
:1039000000AF78600A1CFB1C1A70FB1C1B78002B94
:1039100007D07B681B68802212041A437B681A60F8
:1039200005E07B681A68034B1A407B681A60BD4645
:1039300002B080BDFFFF7FFF80B582B000AF78602E
:103940000A1CFB1C1A70FB1C1B78002B07D07B6821
:103950001B688022D2041A437B681A6005E07B68EA
:103960001A68034B1A407B681A60BD4602B080BDDE
:10397000FFFFFFFB80B582B000AF78607B681B6AF9
:10398000DBB2181CBD4602B080BDC04680B584B015
:1039900000AF78600A1CFB1C1A700023FB607B6878
:1039A000FB60FB1C1A78FB68D318FB60FB681B6884
:1039B000181CBD4604B080BD80B582B000AF7860F1
:1039C0000A1CFB1C1A70FB1C1A787B689A62BD46A5
:1039D00002B080BD80B582B000AF78607B685B6A62
:1039E000DBB2181CBD4602B080BDC04680B584B0B5
:1039F00000AFF860B960FB1D1A70FB1D1B78002B2F
:103A000006D0FB681A68BB681A43FB681A6006E0B8
:103A1000FB681B68BA68D2431A40FB681A60BD464F
:103A200004B080BD80B584B000AF786039600023F9
:103A3000BB603B1C0F3300221A707B689B69BB6024
:103A4000BB683A681340BB60BB68002B04D03B1CCA
:103A50000F3301221A7003E03B1C0F3300221A704F
:103A60003B1C0F331B78181CBD4604B080BDC046FC
:103A700080B582B000AF786039607B683A68DA61FF
:103A8000BD4602B080BDC04680B586B000AF78604C
:103A900039600023FB603B1C173300221A7000239F
:103AA0003B613A68FC239B01134005D07B681A6890
:103AB000802313403B610EE03A68C023134005D0D9
:103AC0007B681A68402313403B6104E07B681B68F5
:103AD0003A6813403B617B689B69FB60FB683A680E
:103AE0001340FB60FB68002B07D03B69002B04D020
:103AF0003B1C173301221A7003E03B1C17330022D2
:103B00001A703B1C17331B78181CBD4606B080BDCD
:103B100080B582B000AF786039607B683A68DA615E
:103B2000BD4602B080BDC04680B582B000AF021C69
:103B3000BB1D1A80034BBA1D12881A60BD4602B025
:103B400080BDC0460030004080B582B000AF021C8E
:103B5000FB1D1A70034BFA1D12785A60BD4602B065
:103B600080BDC0460030004080B582B000AF021C6E
:103B7000BB1D1A80034BBA1D12889A60BD4602B065
:103B800080BDC0460030004080B500AF024B034A04
:103B90001A60BD4680BDC04600300040AAAA0000A1
:103BA00080B582B000AF021CBB1D1A80034BBA1D4A
:103BB00012881A61BD4602B080BDC0460030004088
:103BC00080B500AF024B034A1A60BD4680BDC046B7
:103BD00000300040CCCC000080B584B000AF021CA7
:103BE000BB1D1A803B1C0F3300221A700A4BDB6886
:103BF000BA1D1288134004D03B1C0F3301221A70E7
:103C000003E03B1C0F3300221A703B1C0F331B7860
:103C1000181CBD4604B080BD0030004080B584B0A3
:103C200000AF78600023FB607B689B78002B3CD062
:103C3000244B7A6812789208D2B2C0329200D358DC
:103C4000FB607B681B781A1C03231340DB00FF22F8
:103C5000101C9840031CDA43FB681340FB607B6830
:103C60005B789A01FF231A407B681B78191C032399
:103C70000B40DB00111C99400B1CFA681343FB60DE
:103C8000104B7A6812789208D2B2C0329200F9686A
:103C9000D1500C4B7A681278111C1F220A40012166
:103CA000081C9040021C1A6009E0064A7B681B78D9
:103CB000191C1F230B40012199408023D150BD4680
:103CC00004B080BD00E100E080B582B000AF0A1C06
:103CD000FB1D011C1970BB1D1A70BB1D1B78002B2E
:103CE00007D0094B084A1169FA1D12780A431A6174
:103CF00007E0054B044A1269F91D0978C9430A40D7
:103D00001A61BD4602B080BD00ED00E080B582B012
:103D100000AF78607B68042B06D1084B074A126815
:103D200004210A431A6005E0044B044A1268042186
:103D30008A431A60BD4602B080BDC04610E000E074
:103D400080B500AF80235B05181C012100F08EFDBB
:103D500080235B05181C002100F088FDBD4680BD56
:103D600080B582B000AF021CFB1D1A70FB1D1B78D2
:103D7000002B07D0084B084A1268802149000A43EB
:103D80001A6005E0044B044A1168044A0A401A60AC
:103D9000BD4602B080BDC04600700040FFFEFFFF80
:103DA00080B584B000AF78600023FB60084B1B68CF
:103DB000FB60FB68E0229343FB60FA687B68134377
:103DC000FB60034BFA681A60BD4604B080BDC04674
:103DD0000070004080B582B000AF021CFB1D1A705D
:103DE000FB1D1B78002B06D0074B074A12681021D9
:103DF0000A431A6005E0044B034A126810218A4303
:103E00001A60BD4602B080BD0070004080B582B02F
:103E100000AF78600A1CFB1C1A70FB1C1B78002B7F
:103E200006D0084B074A51687A680A435A6006E090
:103E3000044B044A52687968C9430A405A60BD4637
:103E400002B080BD0070004080B582B000AF021C9F
:103E5000FB1D1A70074B074A126904218A431A6135
:103E6000FB1D1B78012B01D130BF00E020BFBD46F8
:103E700002B080BD00ED00E080B584B000AF786096
:103E80000A1CFB1C1A700023FB60124B1B68FB60B2
:103E9000FB6803229343FB60FA687B681343FB6073
:103EA0000C4BFA681A600C4B0B4A126904210A4346
:103EB0001A61FB1C1B78012B01D130BF00E020BF31
:103EC000054B054A126904218A431A61BD4604B0B4
:103ED00080BDC0460070004000ED00E080B500AF3E
:103EE0000A4B0A4A126804210A431A60074B074A20
:103EF000126802210A431A60054B054A126904211F
:103F00000A431A6130BFBD4680BDC0460070004004
:103F100000ED00E080B584B000AF78603B1C0F334B
:103F200000221A700A4B5B687A68134004D03B1C6D
:103F30000F3301221A7003E03B1C0F3300221A706A
:103F40003B1C0F331B78181CBD4604B080BDC04617
:103F50000070004080B582B000AF7860044B044A26
:103F600011687A6892000A431A60BD4602B080BDAB
:103F70000070004080B500AF1A4B1A4A1268012148
:103F80000A431A60174B174A5168174A0A405A6089
:103F9000144B144A1168154A0A401A60114B114A11
:103FA0001168134A0A401A600E4B0E4A5168114AB2
:103FB0000A405A600B4B0B4AD26A0F218A43DA62DD
:103FC000084B084A116B0C4A0A401A63054B054A14
:103FD000526B01218A435A63024B00229A60BD460C
:103FE00080BDC046001002400CB8FFF8FFFFF6FE8F
:103FF000FFFFFBFFFFFFC0FFACFEFFFF80B582B0FD
:1040000000AF021CFB1D1A70044B00221A70034BF8
:10401000FA1D12781A70BD4602B080BD021002402F
:1040200090B583B000AF00233B60FB1D00221A70E7
:10403000BB1D00221A70BC1D112000F05DFC031C8A
:1040400023703B6801333B603A68A023DB009A424F
:1040500003D0BB1D1B78002BEDD0112000F04CFCD1
:10406000031C002B03D0FB1D01221A7002E0FB1D74
:1040700000221A70FB1D1B78181CBD4603B090BDB2
:1040800080B584B000AF021CFB1D1A700023FB60DA
:10409000094B1B68FB60FB68F8229343FB60FB1D28
:1040A0001B78DB00FA681343FB60034BFA681A6065
:1040B000BD4604B080BDC0460010024080B582B04D
:1040C00000AF021CFB1D1A70FB1D1B78002B06D0D5
:1040D000074B074A126801210A431A6005E0044BA6
:1040E000034A126801218A431A60BD4602B080BDAE
:1040F0000010024080B584B000AF021CFB1D1A7096
:104100000023FB60094B5B6BFB60FB68F822934369
:10411000FB60FB1D1B78DB00FA681343FB60034B5D
:10412000FA685A63BD4604B080BDC0460010024024
:1041300080B582B000AF021CFB1D1A70FB1D1B78FE
:10414000002B06D0074B074A526B01210A435A63E2
:1041500005E0044B034A526B01218A435A63BD4672
:1041600002B080BD0010024080B582B000AF021CDA
:10417000FB1D1A70FB1D1B78002B06D0074B074A4E
:10418000526B04218A435A6305E0044B034A526B85
:1041900004210A435A63BD4602B080BD00100240AC
:1041A00080B582B000AF78600A4B0A4A126A0121DA
:1041B0008A431A62074B074A126A04218A431A6229
:1041C000044B044A116A7A680A431A62BD4602B077
:1041D00080BDC0460010024080B582B000AF78605C
:1041E000074B074A126A18218A431A62044B044A91
:1041F000116A7A680A431A62BD4602B080BDC046A1
:104200000010024080B582B000AF021CFB1D1A7086
:10421000FB1D1B78002B06D0074B074A526A012171
:104220000A435A6205E0044B034A526A01218A4359
:104230005A62BD4602B080BD0010024080B582B017
:1042400000AF78603960084B074A5168074A0A4056
:104250005A60054B044A516878683A6802430A4339
:104260005A60BD4602B080BD00100240FFFFC2FF91
:1042700080B582B000AF021CFB1D1A70FB1D1B78BD
:10428000002B07D0084B084A1268802149040A43D2
:104290001A6005E0044B044A1168044A0A401A6097
:1042A000BD4602B080BDC04600100240FFFFFFFEC9
:1042B00080B584B000AF78600023FB60084BDB6AF8
:1042C000FB60FB680F229343FB60FA687B68134333
:1042D000FB60034BFA68DA62BD4604B080BDC0469D
:1042E0000010024080B582B000AF021CFB1D1A70A6
:1042F000FB1D1B78002B07D0084B084A1268802151
:1043000009030A431A6005E0044B044A1168044A91
:104310000A401A60BD4602B080BDC046001002408F
:10432000FFFFF7FF80B582B000AF021CFB1D1A70C3
:10433000034BFA1D12781A70BD4602B080BDC0460C
:104340000710024080B584B000AF78600023FB60A6
:10435000084B5B68FB60FB6803229343FB60FA68D1
:104360007B681343FB60034BFA685A60BD4604B098
:1043700080BDC0460010024080B500AF044B5B68B2
:10438000DAB20C231340DBB2181CBD4680BDC04618
:104390000010024080B584B000AF78600023FB605D
:1043A000084B5B68FB60FB68F0229343FB60FA6894
:1043B0007B681343FB60034BFA685A60BD4604B048
:1043C00080BDC0460010024080B584B000AF786068
:1043D0000023FB60084B5B68FB60FA68074B1340E7
:1043E000FB60FA687B681343FB60034BFA685A6012
:1043F000BD4604B080BDC04600100240FFF8FFFF7C
:1044000080B582B000AF78600E4B0E4A51680E4AFC
:104410000A405A600B4B0B4A51687A681204120C1E
:104420000A435A60074B074A116B084A0A401A634D
:10443000044B044A116B7A68120C0A431A63BD4696
:1044400002B080BD00100240FFBFFFFFFFFEFFFF74
:1044500080B582B000AF7860074B074A126B4021ED
:104460008A431A63044B044A116B7A680A431A633D
:10447000BD4602B080BDC0460010024080B582B08B
:1044800000AF7860074B074A126B10218A431A630A
:10449000044B044A116B7A680A431A63BD4602B0A2
:1044A00080BDC0460010024080B582B000AF786089
:1044B000074B074A126B03218A431A63044B044AD1
:1044C000116B7A680A431A63BD4602B080BDC046CC
:1044D0000010024080B588B000AF78600023FB6117
:1044E0000023BB6100237B6100233B610023FB6051
:1044F000654B5A680C231340FB61FB69042B07D002
:10450000082B09D0002B30D17B68604A1A6030E05C
:104510007B685E4A1A602CE05B4B5A68F0239B0371
:104520001340BB61584B5A6880235B0213407B6188
:10453000BB699B0C0233BB617B69002B05D1BB6956
:10454000534A5A437B681A6013E04F4BDA6A0F23D1
:10455000134001333B614D483969FBF72DFE031CC5
:10456000BA695A437B681A6003E07B68474A1A605D
:10457000C046454B5A68F0231340FB61FB691B0999
:10458000FB61444AFB69D3181B78DBB2FB607B6894
:104590001A68FB68DA407B685A603B4B5A68E02334
:1045A000DB001340FB61FB691B0AFB61394AFB69B5
:1045B000D3181B78DBB2FB607B685A68FB68DA4073
:1045C0007B689A60304B1A6B80235B00134003D1E9
:1045D0007B68314ADA6010E02B4B5A688023DB019C
:1045E000134005D17B689B685A087B68DA6004E059
:1045F0007B689B689A087B68DA60234B1A6B4023C0
:10460000134003D17B68254A1A6103E07B6880224E
:1046100012021A611C4B1A6B1023134003D17B68E2
:104620001A4A5A6103E07B681A687B685A61164B24
:104630001A6B0323134004D17B689A687B689A61E4
:104640001EE0114B1A6B03231340012B04D17B682E
:104650001A687B689A6113E00B4B1A6B03231340B3
:10466000022B04D17B68802212029A6108E0064B7B
:104670001A6B03231340032B02D17B68034A9A6110
:10468000BD4608B080BDC0460010024000127A004E
:1046900000093D0014000020809FD500128000001A
:1046A00080B582B000AF7860044B044A116A7A6822
:1046B0000A431A62BD4602B080BDC04600100240E7
:1046C00080B582B000AF021CFB1D1A70FB1D1B7869
:1046D000002B07D0084B084A126A802109020A43BE
:1046E0001A6205E0044B044A116A044A0A401A623D
:1046F000BD4602B080BDC04600100240FF7FFFFFF4
:1047000080B582B000AF021CFB1D1A70FB1D1B7828
:10471000002B07D0084B084A126A802149020A433D
:104720001A6205E0044B044A116A044A0A401A62FC
:10473000BD4602B080BDC04600100240FFFFFEFF34
:1047400080B582B000AF78600A1CFB1C1A70FB1C9D
:104750001B78002B06D0084B074A51697A680A4338
:104760005A6106E0044B044A52697968C9430A4019
:104770005A61BD4602B080BD0010024080B582B0D3
:1047800000AF78600A1CFB1C1A70FB1C1B78002B06
:1047900006D0084B074A91697A680A439A6106E095
:1047A000044B044A92697968C9430A409A61BD463C
:1047B00002B080BD0010024080B582B000AF7860CA
:1047C0000A1CFB1C1A70FB1C1B78002B06D0084B24
:1047D000074AD1697A680A43DA6106E0044B044A61
:1047E000D2697968C9430A40DA61BD4602B080BD2A
:1047F0000010024080B582B000AF78600A1CFB1C3C
:104800001A70FB1C1B78002B06D0084B074A916AD4
:104810007A680A439A6206E0044B044A926A79680D
:10482000C9430A409A62BD4602B080BD00100240F2
:1048300080B582B000AF78600A1CFB1C1A70FB1CAC
:104840001B78002B06D0084B074AD1687A680A43C8
:10485000DA6006E0044B044AD2687968C9430A402A
:10486000DA60BD4602B080BD0010024080B582B063
:1048700000AF78600A1CFB1C1A70FB1C1B78002B15
:1048800006D0084B074A11697A680A431A6106E0A4
:10489000044B044A12697968C9430A401A61BD464B
:1048A00002B080BD0010024080B582B000AF0A1C8B
:1048B000FB1D011C1970BB1D1A70BB1D1B78002B42
:1048C00009D00C4B0B4A1278D1B2FA1D12780A4368
:1048D000D2B21A700AE0074B064A1278D2B2F91D1A
:1048E0000978C943C9B20A40D2B21A70BD4602B0B3
:1048F00080BDC0460910024080B586B000AF021CE2
:10490000FB1D1A700023FB6000237B613B1C1333EB
:1049100000221A70FB1D1B785B09DBB2FB60FB6891
:10492000002B03D1174B1B687B6110E0FB68012B48
:1049300003D1144B1B6A7B6109E0FB68022B03D196
:10494000104B5B6A7B6102E00E4B5B6B7B61FB1D76
:104950001A781F231340FB60FB687A69DA40012351
:10496000134004D03B1C133301221A7003E03B1C9C
:10497000133300221A703B1C13331B78181CBD46DE
:1049800006B080BD0010024080B500AF044B044A61
:10499000526A802149040A435A62BD4680BDC0461E
:1049A0000010024080B584B000AF021CFB1D1A70DD
:1049B0003B1C0F3300221A700A4B9B68FA1D1278B9
:1049C000134004D03B1C0F3301221A7003E03B1C40
:1049D0000F3300221A703B1C0F331B78181CBD4686
:1049E00004B080BD0010024080B582B000AF021C50
:1049F000FB1D1A70034BFA1D12781A70BD4602B0E7
:104A000080BDC0460A10024080B582B000AF0023CE
:104A10003B60FB1D00221A70214BCA225A62204BB8
:104A200053225A6200F0B0F8031C002B03D1FB1D87
:104A300000221A702BE01A4B00221A60184B194AF8
:104A40005A60174B9B68164B00229A60144B164A0B
:104A50001A61134B0022DA61114B0022DA62104B0B
:104A60000022DA630E4B00225A640D4B0022DA60FA
:104A70000B4B00221A6400F0D3F8031C002B03D167
:104A8000FB1D00221A7002E0FB1D01221A70044B6C
:104A9000FF225A62FB1D1B78181CBD4602B080BD68
:104AA0000028004001210000FF007F0080B584B095
:104AB00000AF78603B1C0F3300221A701C4BCA22D7
:104AC0005A621B4B53225A6200F05EF8031C002B03
:104AD00004D13B1C0F3300221A701EE0144B144A01
:104AE000926840218A439A60114B114A91687A6812
:104AF00012680A439A600E4B7A6892681A610C4BEE
:104B00000B4A11697A68526812040A431A6100F06C
:104B10007BF83B1C0F3301221A70054BFF225A62AF
:104B20003B1C0F331B78181CBD4604B080BDC0462B
:104B30000028004080B582B000AF78607B6800221A
:104B40001A607B687F225A607B68FF229A60BD46AC
:104B500002B080BD80B582B000AF021CFB1D1A7090
:104B6000FB1D1B78002B03D0064BFF225A6205E089
:104B7000044BCA225A62034B53225A62BD4602B00A
:104B800080BDC0460028004080B584B000AF00233F
:104B90007B603B1C0F3300221A700023BB60194B53
:104BA000DA684023134022D1164B01225242DA60C8
:104BB000144BDA6840231340BB607B6801337B6091
:104BC0007A688023DB019A4202D0BB68002BEFD0C9
:104BD0000C4BDA684023134004D03B1C0F330122F6
:104BE0001A7008E03B1C0F3300221A7003E03B1CD4
:104BF0000F3301221A703B1C0F331B78181CBD4663
:104C000004B080BD0028004080B500AF034B034ACC
:104C1000D26880218A43DA60BD4680BD002800400A
:104C200080B584B000AF00237B603B1C0F330022B3
:104C30001A700023BB601F4B9A682023134004D0D6
:104C40003B1C0F3301221A702CE01A4BCA225A6205
:104C5000184B53225A62174B164AD268A0218A4336
:104C6000DA60144BDA6820231340BB607B680133A1
:104C70007B607A6880231B029A4202D0BB68002BBB
:104C8000EFD00C4BDA682023134004D03B1C0F33C9
:104C900001221A7003E03B1C0F3300221A70054BEF
:104CA000FF225A623B1C0F331B78181CBD4604B010
:104CB00080BDC0460028004080B584B000AF021C13
:104CC000FB1D1A703B1C0F3300221A70184BCA22AE
:104CD0005A62174B53225A62FFF756FF031C002BF0
:104CE00004D13B1C0F3300221A7016E0FB1D1B7809
:104CF000002B06D00E4B0E4A926810210A439A6090
:104D000005E00B4B0A4A926810218A439A60FFF72C
:104D10007BFF3B1C0F3301221A70054BFF225A62A6
:104D20003B1C0F331B78181CBD4604B080BDC04629
:104D30000028004080B582B000AF021CFB1D1A7035
:104D40000E4BCA225A620D4B53225A62FB1D1B782E
:104D5000002B06D0094B094A926820210A439A6029
:104D600005E0064B054A9168DF220A409A60034B32
:104D7000FF225A62BD4602B080BDC04600280040F6
:104D800090B585B000AF786039600023FB603B1CB4
:104D90000B3300221A707B68002B08D1404B9A68B5
:104DA0004023134013D13B680022DA700FE03C4BE4
:104DB0009A684023134007D03B681B78181C00F00A
:104DC0009DFF031CFB6002E03B680022DA707B68F9
:104DD000002B0FD03B681B781A043B685B781B02E2
:104DE0001A433B689B781A433B68DB781B041343E8
:104DF000FB601BE03B681B78181C00F057FF031C8E
:104E00001C043B685B78181C00F050FF031C1B025D
:104E10001C433B689B78181C00F048FF031C221CB5
:104E20001A433B68DB781B041343FB601C4BCA220C
:104E30005A621B4B53225A62FFF7A6FE031C002B3B
:104E400004D13B1C0B3300221A701EE0144BF9688E
:104E5000144A0A401A60FFF7D7FE114B9A682023C4
:104E600013400ED1FFF7DCFE031C002B04D13B1CCA
:104E70000B3300221A7008E03B1C0B3301221A701E
:104E800003E03B1C0B3301221A70054BFF225A62D0
:104E90003B1C0B331B78181CBD4605B090BDC046AB
:104EA000002800407F7F7F0080B582B000AF78602F
:104EB0007B680022DA707B6800221A707B6800220F
:104EC0005A707B6800229A70BD4602B080BDC04611
:104ED00080B584B000AF786039600023FB60224B5E
:104EE0001A68224B1340FB60FA68FC239B031340B3
:104EF0001B0CDAB23B681A70FA68FE23DB01134020
:104F00001B0ADAB23B685A70FB68DAB27F2313409F
:104F1000DAB23B689A70FA688023DB0313401B0CFB
:104F2000DAB23B68DA707B68002B1AD13B681B78D9
:104F3000181C00F0E3FE031C1A1C3B681A703B6847
:104F40005B78181C00F0DAFE031C1A1C3B685A70D0
:104F50003B689B78181C00F0D1FE031C1A1C3B68B0
:104F60009A70BD4604B080BD002800407F7F7F005E
:104F700080B582B000AF00237B60054B9B6A7B60ED
:104F8000034B5B687B68181CBD4602B080BDC04601
:104F90000028004090B585B000AF786039600023EC
:104FA000FB603B1C0B3300221A707B68002B0ED178
:104FB0003B685B781A1C1023134008D03B685B7871
:104FC00010229343DBB20A33DAB23B685A707B6833
:104FD000002B0DD03B685B78181C00F08FFE031C83
:104FE000FB603B689B78181C00F088FE031CFB608C
:104FF0007B68002B0FD03B68DB781A043B685B783A
:105000001B021A433B689B781A433B681B785B037F
:105010001343FB601BE03B68DB78181C00F046FE86
:10502000031C1C043B685B78181C00F03FFE031C4B
:105030001B021C433B689B78181C00F037FE031CC6
:10504000221C1A433B681B785B031343FB601C4B19
:10505000CA225A621A4B53225A62FFF795FD031C6B
:10506000002B04D13B1C0B3300221A701EE0144BA2
:10507000F968144A0A405A60FFF7C6FD104B9A6857
:10508000202313400ED1FFF7CBFD031C002B04D1CE
:105090003B1C0B3300221A7008E03B1C0B3301222F
:1050A0001A7003E03B1C0B3301221A70044BFF22E1
:1050B0005A623B1C0B331B78181CBD4605B090BDD3
:1050C000002800403FFFFF0080B582B000AF78604D
:1050D0007B6801221A707B6801229A707B6801222A
:1050E0005A707B680022DA70BD4602B080BDC046AF
:1050F00080B584B000AF786039600023FB60244B3A
:105100005A68244B1340FB60FA68FF231B041340CA
:105110001B0CDAB23B68DA70FA68F8235B011340C3
:105120001B0ADAB23B685A70FB68DAB23F231340BD
:10513000DAB23B689A70FA68E0231B0213405B0BFB
:10514000DAB23B681A707B68002B1ED13B68DB78B3
:10515000181C00F0D3FD031C1A1C3B68DA703B6876
:105160005B78181C00F0CAFD031C1A1C3B685A70BF
:105170003B689B78181C00F0C1FD031C1A1C3B689F
:105180009A703B681A783B681A70BD4604B080BDBF
:10519000002800403FFFFF0090B587B000AFF860E7
:1051A000B9607A6000237B61FB68002B08D1424B19
:1051B0009A684023134026D17B680022DA7022E0EF
:1051C0003D4B9A684023134007D07B681B78181C1E
:1051D00000F094FD031C7B6102E07B680022DA7022
:1051E0007B689B68002B07D17B681B7B181C00F039
:1051F00085FD031C7B6106E07B681B7B181C00F0AF
:105200007DFD031C7B61FB68002B19D07B681B783C
:105210001A047B685B781B021A437B689B781A43ED
:105220007B68DB781B041A437B681B7B1B061A43D5
:105230007B689B681A437B685B6813437B612BE048
:105240007B681B78181C00F031FD031C1C047B6874
:105250005B78181C00F02AFD031C1B021C437B68B2
:105260009B78181C00F022FD031C221C1A437B684B
:10527000DB781B04141C1C437B681B7B181C00F090
:1052800015FD031C1B06221C1A437B689B681A43EE
:105290007B685B6813437B61074BCA225A62064BEB
:1052A00053225A62044B7A69DA61034BFF225A6235
:1052B000BD4607B090BDC0460028004080B582B012
:1052C00000AF78607B680022DA707B6800221A7079
:1052D0007B6800225A707B6800229A707B680022EB
:1052E0009A607B6801221A737B6800225A60BD466F
:1052F00002B080BD80B586B000AFF860B9607A605A
:1053000000237B612F4BDB697B617A69FC239B0364
:1053100013401B0CDAB27B681A707A69FE23DB013A
:1053200013401B0ADAB27B685A707B69DAB27F23BA
:105330001340DAB27B689A707A698023DB031340EA
:105340001B0CDAB27B68DA707A69FC239B05134088
:105350001B0EDAB27B681A737A698023DB051A4068
:105360007B689A607A69184B1A407B685A60FB68C0
:10537000002B23D17B681B78181C00F0BFFC031C9A
:105380001A1C7B681A707B685B78181C00F0B6FCEE
:10539000031C1A1C7B685A707B689B78181C00F0F1
:1053A000ADFC031C1A1C7B689A707B681B7B181C65
:1053B00000F0A4FC031C1A1C7B681A73BD4606B0DF
:1053C00080BDC046002800408080808080B586B0C7
:1053D00000AF78600A1CFB1C1A700023FB600023DE
:1053E0003B613B1C173300221A70234BCA225A62BE
:1053F000214B53225A62FB1C1B78002B0AD01E4BF8
:105400001D4A91687A680A439A603B1C173301224F
:105410001A7026E0184B184A92687968C9430A4006
:105420009A60154BDB687A68120A13403B61FB688F
:105430000133FB60FA688023DB019A4202D03B69AA
:10544000002BEED00C4BDB687A68120A134004D1B3
:105450003B1C173300221A7003E03B1C1733012258
:105460001A70054BFF225A623B1C17331B78181C1D
:10547000BD4606B080BDC0460028004080B586B05D
:1054800000AFF860B960FB1D1A7000237B610A4B06
:10549000CA225A62084B53225A62FB1D1B781A0615
:1054A000BB6813437B61044B7A695A64024BFF2249
:1054B0005A62BD4606B080BD0028004080B584B069
:1054C00000AF78600023FB60044B5B6C5B045B0CFB
:1054D000FB60FB68181CBD4604B080BD002800407E
:1054E00080B582B000AF786039600D4BCA225A6235
:1054F0000B4B53225A620A4B094A9168094A0A40E7
:105500009A60074B064A916878683A6802430A43F2
:105510009A60034BFF225A62BD4602B080BDC0466E
:1055200000280040FFFFFBFF80B500AF034B9A68E7
:105530008023DB021340181CBD4680BD00280040BC
:1055400080B582B000AF786039600D4BCA225A62D4
:105550000B4B53225A620A4B094A9168094A0A4086
:105560009A60074B064A916878683A6802430A4392
:105570009A60034BFF225A62BD4602B080BDC0460E
:1055800000280040FFFF8FFF80B582B000AF021CF3
:10559000FB1D1A700E4BCA225A620D4B53225A62DF
:1055A000FB1D1B78002B07D0094B094A926880210C
:1055B00009040A439A6005E0054B054A9168054ACB
:1055C0000A409A60024BFF225A62BD4602B080BD7B
:1055D00000280040FFFF7FFF80B582B000AF7860F9
:1055E0000B4BCA225A620A4B53225A62084B084A92
:1055F0009168084A0A409A60054B054A91687A68A2
:105600000A439A60024BFF225A62BD4602B080BD37
:1056100000280040FFFFF7FF80B586B000AFF860BC
:10562000B9607A603B1C173300221A7000233B617B
:105630001D4BCA225A621C4B53225A621A4BDA681B
:1056400080235B0213400ED002E03B6901333B61D3
:10565000154BDA6880235B02134004D03A6980233B
:105660005B019A42F1D1104BDA6880235B02134050
:105670000BD10D4BF968BA6811437A680A43DA63B3
:105680003B1C173301221A7003E03B1C1733002226
:105690001A70054BFF225A623B1C17331B78181CEB
:1056A000BD4606B080BDC0460028004080B584B02D
:1056B00000AF78600A1CFB1C1A700023FB60124BC1
:1056C0009A68124B1340FB60FB1C1B78002B07D021
:1056D0007A68FB681343802212011343FB6003E0E6
:1056E000FA687B681343FB60074BCA225A62064B79
:1056F00053225A62044BFA689A60034BFF225A62A3
:10570000BD4604B080BDC04600280040F7F7FFFF4B
:1057100080B586B000AFF860B9607A6000237B6125
:1057200000233B613F4B1A6B3F4B13407B613D4B6A
:105730005A6B3E4B13403B617A69FC239B03134039
:105740001B0CDAB2BB681A707A69FE23DB011340C6
:105750001B0ADAB2BB685A707B69DAB27F23134046
:10576000DAB2BB689A707A698023DB0313401B0CA2
:10577000DAB2BB68DA707B680022DA703A69F82323
:105780005B0113401B0ADAB27B685A703B69DAB2DC
:105790003F231340DAB27B689A703A69E0231B0218
:1057A00013405B0BDAB27B681A70FB68002B35D1B3
:1057B000BB681B78181C00F0A1FA031C1A1CBB68FC
:1057C0001A70BB685B78181C00F098FA031C1A1C4E
:1057D000BB685A70BB689B78181C00F08FFA031CDA
:1057E0001A1CBB689A707B685B78181C00F086FAFC
:1057F000031C1A1C7B685A707B689B78181C00F08D
:105800007DFA031C1A1C7B689A707B681B78181C35
:1058100000F074FA031C1A1C7B681A70BD4606B0AF
:1058200080BDC046002800407F7F7F003FFFFF0013
:1058300080B500AF024B9B6B181CBD4680BDC046B7
:105840000028004080B582B000AF786039603B68C6
:10585000002B08D1094B094A126C79684900C943E9
:105860000A401A6406E0054B044A116C7A6852003B
:105870000A431A64BD4602B080BDC04600280040FD
:1058800080B582B000AF78600A1CFB1C1A70FB1C4C
:105890001B78002B06D0084B074A116C7A680A4324
:1058A0001A6406E0044B044A126C7968C9430A4042
:1058B0001A64BD4602B080BD0028004080B582B0A9
:1058C00000AF7860074B074A116C074A0A401A6418
:1058D000044B044A116C7A680A431A64BD4602B04C
:1058E00080BDC04600280040FFE7FFFF80B582B0C2
:1058F00000AF7860074B074A116C074A0A401A64E8
:10590000044B044A116C7A680A431A64BD4602B01B
:1059100080BDC04600280040FFF8FFFF80B582B080
:1059200000AF7860074B074A116C074A0A401A64B7
:10593000044B044A116C7A680A431A64BD4602B0EB
:1059400080BDC04600280040FF9FFFFF80B582B0A9
:1059500000AF021CFB1D1A70FB1D1B78002B06D02C
:10596000074B074A126C80210A431A6405E0044B76
:10597000034A126C80218A431A64BD4602B080BD7E
:105980000028004080B582B000AF021CFB1D1A70D9
:10599000FB1D1B78002B06D0084B084A116C084AE7
:1059A0000A401A6406E0054B044A126C8021090281
:1059B0000A431A64BD4602B080BDC04600280040BC
:1059C000FF7FFFFF80B584B000AF786039600023AF
:1059D000FB60064BFB607B689A00FB68D318FB609A
:1059E000FB683A681A60BD4604B080BD502800408C
:1059F00080B584B000AF78600023FB60064BFB608D
:105A00007B689A00FB68D318FB60FB681B68181C56
:105A1000BD4604B080BDC0465028004080B582B06D
:105A200000AF7860074B074A116C074A0A401A64B6
:105A3000044B044A116C7A680A431A64BD4602B0EA
:105A400080BDC04600280040FFFFFBFF80B584B04A
:105A500000AF786039603B1C0F3300221A700023BE
:105A6000BB60254BCA225A62234B53225A62224BF7
:105A7000DA68082313400DD002E0BB680133BB6035
:105A80001D4BDA680823134004D0BA6880235B01F9
:105A90009A42F2D1184BDA68082313401DD1164BF5
:105AA0009A681023134013D1134B39687A680A435C
:105AB000DA62FFF7B5F8031C002B04D13B1C0F334F
:105AC00000221A700DE03B1C0F3301221A7008E00F
